{
  "contractName": "Verifiable6SidedDiceRoll",
  "abi": [
    {
      "inputs": [],
      "stateMutability": "nonpayable",
      "type": "constructor"
    },
    {
      "inputs": [],
      "name": "owner",
      "outputs": [
        {
          "internalType": "address",
          "name": "",
          "type": "address"
        }
      ],
      "stateMutability": "view",
      "type": "function"
    },
    {
      "inputs": [],
      "name": "getNumber",
      "outputs": [
        {
          "internalType": "uint256",
          "name": "",
          "type": "uint256"
        }
      ],
      "stateMutability": "pure",
      "type": "function"
    }
  ],
  "bytecode": "0x608060405234801561001057600080fd5b50600180546001600160a01b0319163317905561002b610033565b600055610058565b6040805142602080830191909152825180830382018152918301909252805191012090565b60be806100666000396000f3fe6080604052348015600f57600080fd5b506004361060325760003560e01c80638da5cb5b146037578063f2c9ecd8146059575b600080fd5b603d6071565b604080516001600160a01b039092168252519081900360200190f35b605f6080565b60408051918252519081900360200190f35b6001546001600160a01b031681565b63499602d29056fea2646970667358221220853500cf65bea95cc9ee888c8d8266c809707828fd5cc7c042ba3e3f32325a1964736f6c63430007040033",
  "immutableReferences": {},
  "source": "pragma solidity ^0.7.4;\n\ncontract Verifiable6SidedDiceRoll {\n    uint private number;\n    address public owner;\n\n    constructor() {\n        owner = msg.sender;\n        number = random();\n    }\n\n    function random() private view returns (uint) {\n        return uint(keccak256(abi.encodePacked(block.timestamp)));\n    }\n\n    function getNumber() public pure returns (uint) {\n        return 1234567890;\n    }\n}\n",
  "sourcePath": "/Users/xillis_wu/Documents/Github/Practice_Area/blockchain/voting-syetem/contracts/RandomNumber.sol",
  "compiler": {
    "name": "solc",
    "version": "0.7.4+commit.3f05b770.Emscripten.clang"
  },
  "schemaVersion": "3.3.1",
  "updatedAt": "2020-10-30T17:51:45.838Z",
  "devdoc": {
    "kind": "dev",
    "methods": {},
    "version": 1
  },
  "userdoc": {
    "kind": "user",
    "methods": {},
    "version": 1
  }
}