{
  "contractName": "VoteCollection",
  "abi": [
    {
      "inputs": [],
      "stateMutability": "nonpayable",
      "type": "constructor"
    },
    {
      "inputs": [],
      "name": "privateKey",
      "outputs": [
        {
          "internalType": "string",
          "name": "",
          "type": "string"
        }
      ],
      "stateMutability": "view",
      "type": "function"
    },
    {
      "inputs": [
        {
          "internalType": "string",
          "name": "data",
          "type": "string"
        }
      ],
      "name": "Vote",
      "outputs": [
        {
          "internalType": "string",
          "name": "",
          "type": "string"
        }
      ],
      "stateMutability": "pure",
      "type": "function"
    },
    {
      "inputs": [
        {
          "internalType": "string",
          "name": "introduce",
          "type": "string"
        }
      ],
      "name": "insertItem",
      "outputs": [],
      "stateMutability": "nonpayable",
      "type": "function"
    },
    {
      "inputs": [
        {
          "internalType": "string",
          "name": "_privateKey",
          "type": "string"
        }
      ],
      "name": "setPrivateKey",
      "outputs": [],
      "stateMutability": "nonpayable",
      "type": "function"
    },
    {
      "inputs": [],
      "name": "getVoteResult",
      "outputs": [],
      "stateMutability": "nonpayable",
      "type": "function"
    }
  ],
  "bytecode": "0x60c06040526000805460ff191690553360601b6080527fdc1b5e9f813323cc7318a7f3d524d244edd7568200000000000000000000000060a05234801561004557600080fd5b50607b600381905560045560805160601c60a05160601c61056c61007960003950806102f65280610364525061056c6000f3fe608060405234801561001057600080fd5b50600436106100575760003560e01c8063323082d71461005c57806349da5a0f1461017557806362a5106b1461017d5780638742fc3b146101ed578063e0d4f017146101f5575b600080fd5b6101006004803603602081101561007257600080fd5b810190602081018135600160201b81111561008c57600080fd5b82018360208201111561009e57600080fd5b803590602001918460018302840111600160201b831117156100bf57600080fd5b91908080601f016020809104026020016040519081016040528093929190818152602001838380828437600092019190915250929550610263945050505050565b6040805160208082528351818301528351919283929083019185019080838360005b8381101561013a578181015183820152602001610122565b50505050905090810190601f1680156101675780820380516001836020036101000a031916815260200191505b509250505060405180910390f35b610100610266565b6101eb6004803603602081101561019357600080fd5b810190602081018135600160201b8111156101ad57600080fd5b8201836020820111156101bf57600080fd5b803590602001918460018302840111600160201b831117156101e057600080fd5b5090925090506102f4565b005b6101eb610360565b6101eb6004803603602081101561020b57600080fd5b810190602081018135600160201b81111561022557600080fd5b82018360208201111561023757600080fd5b803590602001918460018302840111600160201b8311171561025857600080fd5b509092509050610362565b90565b6005805460408051602060026001851615610100026000190190941693909304601f810184900484028201840190925281815292918301828280156102ec5780601f106102c1576101008083540402835291602001916102ec565b820191906000526020600020905b8154815290600101906020018083116102cf57829003601f168201915b505050505081565b7f00000000000000000000000000000000000000000000000000000000000000006001600160a01b0316331461032957600080fd5b6000805460ff8082166001908101821660ff19909316929092178084551682526020526040902061035b908383610495565b505050565b565b7f00000000000000000000000000000000000000000000000000000000000000006001600160a01b0316331461039757600080fd5b600454421180156104435750604080516020810182526000905251600580547fc5d2460186f7233c927e7db2dcc703c0e500b653ca82273b7bfad8045d85a4709290819083906002600019610100600184161502019091160480156104335780601f10610411576101008083540402835291820191610433565b820191906000526020600020905b81548152906001019060200180831161041f575b5050915050604051809103902014155b61048d576040805162461bcd60e51b815260206004820152601660248201527553686f756c6420666f6c6c6f77207468652072756c6560501b604482015290519081900360640190fd5b61035b600583835b828054600181600116156101000203166002900490600052602060002090601f0160209004810192826104cb5760008555610511565b82601f106104e45782800160ff19823516178555610511565b82800160010185558215610511579182015b828111156105115782358255916020019190600101906104f6565b5061051d929150610521565b5090565b5b8082111561051d576000815560010161052256fea26469706673582212203b700c5ecb29e389050a5932d0abfeaa4b44779cbe30c1aa81b0578308be6af664736f6c63430007040033",
  "immutableReferences": {
    "16": [
      {
        "length": 32,
        "start": 758
      },
      {
        "length": 32,
        "start": 868
      }
    ]
  },
  "source": "pragma solidity ^0.7.4;\n\ncontract VoteSender {}\n\ncontract VoteCollection {\n\n    uint8 candidateNumber = 0;\n    mapping(uint8 => string) candidates;\n    string[] stronghold;\n    address immutable owner = msg.sender;\n    address immutable voteSender = 0xdC1B5E9F813323CC7318A7F3d524D244edd75682;\n\n    VoteTime voteTime;\n\n    string public privateKey;\n\n    constructor() public {\n        voteTime.startTime = 123;\n        voteTime.expireTime = 123;\n    }\n\n    struct VoteTime {\n        uint startTime;\n        uint expireTime;\n    }\n\n    modifier isOwner() {\n        require(owner == msg.sender);\n        _;\n    }\n\n    modifier isVotingTime() {\n        require(\n            voteTime.startTime <= block.timestamp && block.timestamp <= voteTime.expireTime,\n            \"Not in Time\"\n        );\n        _;\n    }\n\n\n    // 正式投票;\n    function Vote(string memory data) public pure returns (string memory){\n        // TODO\n        return data;\n        // bytes memory payload = abi.encodeWithSignature(\"recycleVote(address)\", msg.sender);\n        // (bool success, bytes memory returnData) = voteSender.delegatecall(payload);\n        // require(success);\n\n        // stronghold.push(data);\n        // return returnData;\n    }\n\n    // 加入候選人;\n    function insertItem(string calldata introduce) public isOwner{\n        candidateNumber ++;\n        candidates[candidateNumber] = introduce;\n    }\n\n    // function getItems() public view returns ( mapping(uint8 => string) calldata) {\n    //     return candidates;\n    // }\n\n    function setPrivateKey(string calldata _privateKey) public isOwner{\n        require(\n            block.timestamp > voteTime.expireTime && keccak256(bytes(privateKey)) != keccak256(bytes(\"\")),\n            \"Should follow the rule\"\n        );\n        privateKey = _privateKey;\n    }\n\n    function getVoteResult() public { }\n}\n",
  "sourcePath": "/Users/xillis_wu/Documents/Github/Practice_Area/blockchain/voting-syetem/contracts/GetRandomNumber.sol",
  "compiler": {
    "name": "solc",
    "version": "0.7.4+commit.3f05b770.Emscripten.clang"
  },
  "schemaVersion": "3.3.1",
  "updatedAt": "2020-10-30T17:54:08.630Z",
  "devdoc": {
    "kind": "dev",
    "methods": {},
    "version": 1
  },
  "userdoc": {
    "kind": "user",
    "methods": {},
    "version": 1
  }
}