{
  "contractName": "ComplexStorage",
  "abi": [
    {
      "inputs": [],
      "stateMutability": "nonpayable",
      "type": "constructor"
    },
    {
      "inputs": [],
      "name": "constuint",
      "outputs": [
        {
          "internalType": "uint256",
          "name": "",
          "type": "uint256"
        }
      ],
      "stateMutability": "view",
      "type": "function",
      "constant": true
    },
    {
      "inputs": [
        {
          "internalType": "uint256",
          "name": "",
          "type": "uint256"
        }
      ],
      "name": "deviceDataArray",
      "outputs": [
        {
          "internalType": "string",
          "name": "deviceBrand",
          "type": "string"
        },
        {
          "internalType": "string",
          "name": "deviceYear",
          "type": "string"
        },
        {
          "internalType": "string",
          "name": "batteryWearLevel",
          "type": "string"
        }
      ],
      "stateMutability": "view",
      "type": "function",
      "constant": true
    },
    {
      "inputs": [],
      "name": "investmentsDeadlineTimeStamp",
      "outputs": [
        {
          "internalType": "uint32",
          "name": "",
          "type": "uint32"
        }
      ],
      "stateMutability": "view",
      "type": "function",
      "constant": true
    },
    {
      "inputs": [],
      "name": "investmentsLimit",
      "outputs": [
        {
          "internalType": "uint128",
          "name": "",
          "type": "uint128"
        }
      ],
      "stateMutability": "view",
      "type": "function",
      "constant": true
    },
    {
      "inputs": [],
      "name": "singleDD",
      "outputs": [
        {
          "internalType": "string",
          "name": "deviceBrand",
          "type": "string"
        },
        {
          "internalType": "string",
          "name": "deviceYear",
          "type": "string"
        },
        {
          "internalType": "string",
          "name": "batteryWearLevel",
          "type": "string"
        }
      ],
      "stateMutability": "view",
      "type": "function",
      "constant": true
    },
    {
      "inputs": [],
      "name": "storeduint1",
      "outputs": [
        {
          "internalType": "uint256",
          "name": "",
          "type": "uint256"
        }
      ],
      "stateMutability": "view",
      "type": "function",
      "constant": true
    },
    {
      "inputs": [],
      "name": "string1",
      "outputs": [
        {
          "internalType": "bytes",
          "name": "",
          "type": "bytes"
        }
      ],
      "stateMutability": "view",
      "type": "function",
      "constant": true
    },
    {
      "inputs": [],
      "name": "string2",
      "outputs": [
        {
          "internalType": "bytes32",
          "name": "",
          "type": "bytes32"
        }
      ],
      "stateMutability": "view",
      "type": "function",
      "constant": true
    },
    {
      "inputs": [],
      "name": "string3",
      "outputs": [
        {
          "internalType": "string",
          "name": "",
          "type": "string"
        }
      ],
      "stateMutability": "view",
      "type": "function",
      "constant": true
    },
    {
      "inputs": [
        {
          "internalType": "uint256",
          "name": "",
          "type": "uint256"
        }
      ],
      "name": "uintarray",
      "outputs": [
        {
          "internalType": "uint256",
          "name": "",
          "type": "uint256"
        }
      ],
      "stateMutability": "view",
      "type": "function",
      "constant": true
    },
    {
      "inputs": [],
      "name": "get_uintarray",
      "outputs": [
        {
          "internalType": "uint256[]",
          "name": "",
          "type": "uint256[]"
        }
      ],
      "stateMutability": "view",
      "type": "function",
      "constant": true
    }
  ],
  "bytecode": "0x600f6000556001805461429f6001600160801b03199091161763ffffffff60801b1916600160801b4263ffffffff160217905560c0604052602060808190527f486579204920616d2061207574662d3820656e636f64656420737472696e672160a0908152620000739160029190620005aa565b506a12195b1b1bc815dbdc9b1960aa1b6003556040805180820190915260158082527f6c65747320737472696e6720736f6d657468696e6700000000000000000000006020909201918252620000cc91600491620005aa565b50348015620000da57600080fd5b5060587fafef6be2b419f4d69d56fe34788202bf06650015554457a2470181981bcce7ef5560637fb01ced36af2255129ceb004046ab791f2c883dd74d458026d7b81c7aaff3566b556040805160a081018252600b606082019081526a19195d9a58d9509c985b9960aa1b6080830152815281518083018352600a8152693232bb34b1b2acb2b0b960b11b602082810191909152828101919091528251808401845260098152681dd9585c93195d995b60ba1b818301529282019290925273bccc714d56bc0da0fd33d96d2a87b680dd6d0df660008190526006835281518051919373aee905fdd3ed851e48d22059575b9f4245a82b0493927f720c187f2880b2567f9fccc279625ea13024b8b82a6f73e26d9ca6d82ede1cc59262000205928492910190620005aa565b506020828101518051620002209260018501920190620005aa565b50604082015180516200023e916002840191602090910190620005aa565b50506040805160a081018252600c606082019081526b3232bb34b1b2a13930b7321960a11b6080830152815281518083018352600b81526a3232bb34b1b2acb2b0b91960a91b6020828101919091528083019190915282518084018452600a8152693bb2b0b92632bb32b61960b11b81830152828401526001600160a01b03851660009081526006825292909220815180519294509092620002e692849290910190620005aa565b506020828101518051620003019260018501920190620005aa565b50604082015180516200031f916002840191602090910190620005aa565b50506040805160a081018252600c606082019081526b6465766963654272616e643360a01b6080830152815281518083018352600b81526a646576696365596561723360a81b6020828101919091528083019190915282518084018452600a815269776561724c6576656c3360b01b818301529282019290925280518051919350600992620003b492849290910190620005aa565b506020828101518051620003cf9260018501920190620005aa565b5060408201518051620003ed916002840191602090910190620005aa565b50506007805460018181018355611f407fa66cc928b5edb82af9bd49922954155ab7b0942694bea4ce44661d9a8736c68892830155825480820190935561232892909101919091556001600160a01b038416600090815260066020526040812060088054808501825592528054909350600390910260008051602062000e788339815191520191620004969183918591600261010092821615929092026000190116046200063f565b5060018201816001019080546001816001161561010002031660029004620004c09291906200063f565b5060028281018054620004e79284810192916000196101006001831615020116046200063f565b5050506001600160a01b03811660009081526006602052604081206008805460018181018355919093528154919260030260008051602062000e7883398151915201916200054e91839185916002610100918316159190910260001901909116046200063f565b5060018201816001019080546001816001161561010002031660029004620005789291906200063f565b50600282810180546200059f9284810192916000196101006001831615020116046200063f565b5050505050620006e0565b828054600181600116156101000203166002900490600052602060002090601f016020900481019282620005e257600085556200062d565b82601f10620005fd57805160ff19168380011785556200062d565b828001600101855582156200062d579182015b828111156200062d57825182559160200191906001019062000610565b506200063b929150620006c9565b5090565b828054600181600116156101000203166002900490600052602060002090601f0160209004810192826200067757600085556200062d565b82601f106200068a57805485556200062d565b828001600101855582156200062d57600052602060002091601f016020900482015b828111156200062d578254825591600101919060010190620006ac565b5b808211156200063b5760008155600101620006ca565b61078880620006f06000396000f3fe608060405234801561001057600080fd5b50600436106100a95760003560e01c80639275586011610071578063927558601461025657806397ba784f146102d3578063a7b2cfca146102db578063df4fddf5146102e3578063ed28969f14610304578063eec65f291461035c576100a9565b80630ca0aa79146100ae57806311f9c74d146100c857806328a20b5e146100d05780636c0c1bcf1461021c57806384eeda5614610239575b600080fd5b6100b6610380565b60408051918252519081900360200190f35b6100b6610386565b6100d861038c565b60405180806020018060200180602001848103845287818151815260200191508051906020019080838360005b8381101561011d578181015183820152602001610105565b50505050905090810190601f16801561014a5780820380516001836020036101000a031916815260200191505b50848103835286518152865160209182019188019080838360005b8381101561017d578181015183820152602001610165565b50505050905090810190601f1680156101aa5780820380516001836020036101000a031916815260200191505b50848103825285518152855160209182019187019080838360005b838110156101dd5781810151838201526020016101c5565b50505050905090810190601f16801561020a5780820380516001836020036101000a031916815260200191505b50965050505050505060405180910390f35b6100b66004803603602081101561023257600080fd5b503561054e565b6100d86004803603602081101561024f57600080fd5b503561056f565b61025e6105ed565b6040805160208082528351818301528351919283929083019185019080838360005b83811015610298578181015183820152602001610280565b50505050905090810190601f1680156102c55780820380516001836020036101000a031916815260200191505b509250505060405180910390f35b6100b661067b565b61025e610680565b6102eb6106d8565b6040805163ffffffff9092168252519081900360200190f35b61030c6106eb565b60408051602080825283518183015283519192839290830191858101910280838360005b83811015610348578181015183820152602001610330565b505050509050019250505060405180910390f35b610364610743565b604080516001600160801b039092168252519081900360200190f35b60035481565b60005481565b60098054604080516020601f600260001961010060018816150201909516949094049384018190048102820181019092528281529183918301828280156104145780601f106103e957610100808354040283529160200191610414565b820191906000526020600020905b8154815290600101906020018083116103f757829003601f168201915b505050505090806001018054600181600116156101000203166002900480601f0160208091040260200160405190810160405280929190818152602001828054600181600116156101000203166002900480156104b25780601f10610487576101008083540402835291602001916104b2565b820191906000526020600020905b81548152906001019060200180831161049557829003601f168201915b50505060028085018054604080516020601f60001961010060018716150201909416959095049283018590048502810185019091528181529596959450909250908301828280156105445780601f1061051957610100808354040283529160200191610544565b820191906000526020600020905b81548152906001019060200180831161052757829003601f168201915b5050505050905083565b6007818154811061055e57600080fd5b600091825260209091200154905081565b6008818154811061057f57600080fd5b60009182526020918290206003919091020180546040805160026001841615610100026000190190931692909204601f8101859004850283018501909152808252919350918391908301828280156104145780601f106103e957610100808354040283529160200191610414565b6004805460408051602060026001851615610100026000190190941693909304601f810184900484028201840190925281815292918301828280156106735780601f1061064857610100808354040283529160200191610673565b820191906000526020600020905b81548152906001019060200180831161065657829003601f168201915b505050505081565b601081565b6002805460408051602060018416156101000260001901909316849004601f810184900484028201840190925281815292918301828280156106735780601f1061064857610100808354040283529160200191610673565b600154600160801b900463ffffffff1681565b6060600780548060200260200160405190810160405280929190818152602001828054801561073957602002820191906000526020600020905b815481526020019060010190808311610725575b5050505050905090565b6001546001600160801b03168156fea2646970667358221220c8753c445a7e0bc9ccb921581229846809d917d34d3079aa4eb0a46de1f1cd3164736f6c63430007040033f3f7a9fe364faab93b216da50a3214154f22a0a2b415b23a84c8169e8b636ee3",
  "immutableReferences": {},
  "source": "// SPDX-License-Identifier: MIT\npragma solidity ^0.7.4;\n\ncontract ComplexStorage {\n    uint public storeduint1 = 15;\n    uint public constant constuint = 16;\n    uint128 public investmentsLimit = 17055;\n    uint32 public investmentsDeadlineTimeStamp = uint32(block.timestamp);\n\n    bytes public string1 = \"Hey I am a utf-8 encoded string!\";\n    bytes32 public string2 = \"Hello World\";\n    string public string3 = \"lets string something\";\n\n    mapping (address => uint) uints1;\n    mapping (address => DeviceData) structs1;\n\n    uint[] public uintarray;\n    DeviceData[] public deviceDataArray;\n    DeviceData public singleDD;\n\n    struct DeviceData {\n        string deviceBrand;\n        string deviceYear;\n        string batteryWearLevel;\n    }\n\n    constructor() {\n        address address1 = 0xbCcc714d56bc0da0fd33d96d2a87b680dD6D0DF6;\n        address address2 = 0xaee905FdD3ED851e48d22059575b9F4245A82B04;\n\n        uints1[address1] = 88;\n        uints1[address2] = 99;\n\n        structs1[address1] = DeviceData(\"deviceBrand\", \"deviceYear\", \"wearLevel\");\n        structs1[address2] = DeviceData(\"deviceBrand2\", \"deviceYear2\", \"wearLevel2\");\n        singleDD = DeviceData(\"deviceBrand3\", \"deviceYear3\", \"wearLevel3\");\n\n        uintarray.push(8000);\n        uintarray.push(9000);\n\n        deviceDataArray.push(structs1[address1]);\n        deviceDataArray.push(structs1[address2]);\n    }\n\n    function get_uintarray() public view returns(uint[] memory) {\n        return uintarray;\n    }\n}\n",
  "sourcePath": "/Users/xillis_wu/Documents/voting-syetem/contracts/ComplexStorage.sol",
  "compiler": {
    "name": "solc",
    "version": "0.7.4+commit.3f05b770.Emscripten.clang"
  },
  "schemaVersion": "3.3.1",
  "updatedAt": "2020-10-31T15:10:18.906Z",
  "networkType": "ethereum",
  "devdoc": {
    "kind": "dev",
    "methods": {},
    "version": 1
  },
  "userdoc": {
    "kind": "user",
    "methods": {},
    "version": 1
  }
}