{
  "contractName": "VoteCollection",
  "abi": [
    {
      "inputs": [
        {
          "internalType": "uint256",
          "name": "",
          "type": "uint256"
        }
      ],
      "name": "candidates",
      "outputs": [
        {
          "internalType": "string",
          "name": "",
          "type": "string"
        }
      ],
      "stateMutability": "view",
      "type": "function",
      "constant": true
    },
    {
      "inputs": [],
      "name": "isDev",
      "outputs": [
        {
          "internalType": "bool",
          "name": "",
          "type": "bool"
        }
      ],
      "stateMutability": "view",
      "type": "function",
      "constant": true
    },
    {
      "inputs": [],
      "name": "isSettingFinish",
      "outputs": [
        {
          "internalType": "bool",
          "name": "",
          "type": "bool"
        }
      ],
      "stateMutability": "view",
      "type": "function",
      "constant": true
    },
    {
      "inputs": [],
      "name": "owner",
      "outputs": [
        {
          "internalType": "address",
          "name": "",
          "type": "address"
        }
      ],
      "stateMutability": "view",
      "type": "function",
      "constant": true
    },
    {
      "inputs": [],
      "name": "privateKey",
      "outputs": [
        {
          "internalType": "string",
          "name": "",
          "type": "string"
        }
      ],
      "stateMutability": "view",
      "type": "function",
      "constant": true
    },
    {
      "inputs": [],
      "name": "publicKey",
      "outputs": [
        {
          "internalType": "string",
          "name": "",
          "type": "string"
        }
      ],
      "stateMutability": "view",
      "type": "function",
      "constant": true
    },
    {
      "inputs": [
        {
          "internalType": "uint256",
          "name": "",
          "type": "uint256"
        }
      ],
      "name": "stronghold",
      "outputs": [
        {
          "internalType": "string",
          "name": "",
          "type": "string"
        }
      ],
      "stateMutability": "view",
      "type": "function",
      "constant": true
    },
    {
      "inputs": [],
      "name": "voteProvider",
      "outputs": [
        {
          "internalType": "address",
          "name": "",
          "type": "address"
        }
      ],
      "stateMutability": "view",
      "type": "function",
      "constant": true
    },
    {
      "inputs": [],
      "name": "votingTime",
      "outputs": [
        {
          "internalType": "uint256",
          "name": "startTime",
          "type": "uint256"
        },
        {
          "internalType": "uint256",
          "name": "expireTime",
          "type": "uint256"
        }
      ],
      "stateMutability": "view",
      "type": "function",
      "constant": true
    },
    {
      "inputs": [
        {
          "internalType": "string",
          "name": "data",
          "type": "string"
        }
      ],
      "name": "voteTo",
      "outputs": [
        {
          "internalType": "bool",
          "name": "",
          "type": "bool"
        }
      ],
      "stateMutability": "nonpayable",
      "type": "function"
    },
    {
      "inputs": [
        {
          "internalType": "uint256",
          "name": "_startTime",
          "type": "uint256"
        },
        {
          "internalType": "uint256",
          "name": "_expireTime",
          "type": "uint256"
        }
      ],
      "name": "setTime",
      "outputs": [],
      "stateMutability": "nonpayable",
      "type": "function"
    },
    {
      "inputs": [
        {
          "internalType": "string",
          "name": "_introduce",
          "type": "string"
        }
      ],
      "name": "introduceCandidate",
      "outputs": [],
      "stateMutability": "nonpayable",
      "type": "function"
    },
    {
      "inputs": [
        {
          "internalType": "address",
          "name": "_provider",
          "type": "address"
        }
      ],
      "name": "setVoteProvider",
      "outputs": [],
      "stateMutability": "nonpayable",
      "type": "function"
    },
    {
      "inputs": [],
      "name": "stopSetAnymore",
      "outputs": [],
      "stateMutability": "nonpayable",
      "type": "function"
    },
    {
      "inputs": [
        {
          "internalType": "string",
          "name": "_privateKey",
          "type": "string"
        }
      ],
      "name": "setPrivateKey",
      "outputs": [],
      "stateMutability": "nonpayable",
      "type": "function"
    },
    {
      "inputs": [
        {
          "internalType": "string",
          "name": "_publicKey",
          "type": "string"
        }
      ],
      "name": "setPublicKey",
      "outputs": [],
      "stateMutability": "nonpayable",
      "type": "function"
    },
    {
      "inputs": [],
      "name": "getCandidates",
      "outputs": [
        {
          "internalType": "string[]",
          "name": "",
          "type": "string[]"
        }
      ],
      "stateMutability": "view",
      "type": "function",
      "constant": true
    },
    {
      "inputs": [],
      "name": "getVoteResult",
      "outputs": [
        {
          "internalType": "string[]",
          "name": "",
          "type": "string[]"
        }
      ],
      "stateMutability": "view",
      "type": "function",
      "constant": true
    },
    {
      "inputs": [],
      "name": "stopVoting",
      "outputs": [],
      "stateMutability": "nonpayable",
      "type": "function"
    },
    {
      "inputs": [],
      "name": "SPECIAL_TIME",
      "outputs": [],
      "stateMutability": "nonpayable",
      "type": "function"
    }
  ],
  "bytecode": "0x60a06040523360601b60805234801561001757600080fd5b5060805160601c61123e61005d60003980610363528061057a52806106b85280610a3a5280610a985280610acf5280610b835280610c8f5280610d89525061123e6000f3fe608060405234801561001057600080fd5b506004361061012c5760003560e01c806380d1020a116100ad578063d0ca2ea411610071578063d0ca2ea414610238578063dc402a8f14610240578063e0d4f01714610253578063f079914f14610266578063fab2f86b1461026e5761012c565b806380d1020a146101ed5780638742fc3b146102005780638d840e86146102085780638da5cb5b14610210578063a0355eca146102255761012c565b806349da5a0f116100f457806349da5a0f146101ad5780635eb9ff5e146101b557806363ffab31146101bd5780636f6fc077146101c5578063733fa3c9146101d85761012c565b806306a49fce1461013157806313ef98511461014f5780631cbe482d1461016457806334391fb81461017a5780633477ee2e1461019a575b600080fd5b610139610276565b604051610146919061107d565b60405180910390f35b61016261015d366004610eba565b61034e565b005b61016c610448565b6040516101469291906111fa565b61018d610188366004610f75565b610451565b60405161014691906110e8565b61018d6101a8366004610f75565b6104fa565b61018d61050a565b610162610565565b61018d610649565b6101626101d3366004610f08565b6106a3565b6101e0610792565b60405161014691906110dd565b6101e06101fb366004610f08565b6107a2565b6101396108d3565b610162610a25565b610218610a96565b6040516101469190611069565b610162610233366004610f8d565b610aba565b610218610b5f565b61016261024e366004610f08565b610b6e565b610162610261366004610f08565b610c7a565b6101e0610d64565b610162610d74565b60606002805480602002602001604051908101604052809291908181526020016000905b828210156103455760008481526020908190208301805460408051601f60026000196101006001871615020190941693909304928301859004850281018501909152818152928301828280156103315780601f1061030657610100808354040283529160200191610331565b820191906000526020600020905b81548152906001019060200180831161031457829003601f168201915b50505050508152602001906001019061029a565b50505050905090565b600454600160a81b900460ff168061038e57507f00000000000000000000000000000000000000000000000000000000000000006001600160a01b031633145b6103b35760405162461bcd60e51b81526004016103aa90611125565b60405180910390fd5b600454600160a81b900460ff16806103cc575060055442105b6103e85760405162461bcd60e51b81526004016103aa9061114b565b600454600160a81b900460ff168061040a5750600454600160a01b900460ff16155b6104265760405162461bcd60e51b81526004016103aa90611177565b600480546001600160a01b0319166001600160a01b0392909216919091179055565b60055460065482565b6003818154811061046157600080fd5b600091825260209182902001805460408051601f60026000196101006001871615020190941693909304928301859004850281018501909152818152935090918301828280156104f25780601f106104c7576101008083540402835291602001916104f2565b820191906000526020600020905b8154815290600101906020018083116104d557829003601f168201915b505050505081565b6002818154811061046157600080fd5b6000805460408051602060026001851615610100026000190190941693909304601f810184900484028201840190925281815292918301828280156104f25780601f106104c7576101008083540402835291602001916104f2565b600454600160a81b900460ff16806105a557507f00000000000000000000000000000000000000000000000000000000000000006001600160a01b031633145b6105c15760405162461bcd60e51b81526004016103aa90611125565b600454600160a81b900460ff16806105da575060055442105b6105f65760405162461bcd60e51b81526004016103aa9061114b565b600454600160a81b900460ff16806106185750600454600160a01b900460ff16155b6106345760405162461bcd60e51b81526004016103aa90611177565b6004805460ff60a01b1916600160a01b179055565b60018054604080516020600284861615610100026000190190941693909304601f810184900484028201840190925281815292918301828280156104f25780601f106104c7576101008083540402835291602001916104f2565b600454600160a81b900460ff16806106e357507f00000000000000000000000000000000000000000000000000000000000000006001600160a01b031633145b6106ff5760405162461bcd60e51b81526004016103aa90611125565b600454600160a81b900460ff168061076557506006544211801561076557506040805160208101825260009081905290517fc5d2460186f7233c927e7db2dcc703c0e500b653ca82273b7bfad8045d85a4709161075b91610ff9565b6040518091039020145b6107815760405162461bcd60e51b81526004016103aa906111a7565b61078d60018383610e19565b505050565b600454600160a01b900460ff1681565b600454600090600160a81b900460ff16806107cc575060055442108015906107cc57506006544211155b6107e85760405162461bcd60e51b81526004016103aa906110fb565b6004805460405163f3e31cab60e01b81526001600160a01b0390911691600091839163f3e31cab9161081c91339101611069565b602060405180830381600087803b15801561083657600080fd5b505af115801561084a573d6000803e3d6000fd5b505050506040513d601f19601f8201168201806040525081019061086e9190610ee8565b90508061088d5760405162461bcd60e51b81526004016103aa906111cf565b600380546001810182556000919091526108ca907fc2575a0e9e593c00f959f8c92f12db2869c3395a3b0502d05e2516446f71f85b018686610e19565b50949350505050565b600454606090600160a81b900460ff168061093c57506006544211801561093c57506040805160208101825260009081905290517fc5d2460186f7233c927e7db2dcc703c0e500b653ca82273b7bfad8045d85a4709161093291610ff9565b6040518091039020145b6109585760405162461bcd60e51b81526004016103aa906111a7565b6003805480602002602001604051908101604052809291908181526020016000905b828210156103455760008481526020908190208301805460408051601f6002600019610100600187161502019094169390930492830185900485028101850190915281815292830182828015610a115780601f106109e657610100808354040283529160200191610a11565b820191906000526020600020905b8154815290600101906020018083116109f457829003601f168201915b50505050508152602001906001019061097a565b600454600160a81b900460ff1680610a6557507f00000000000000000000000000000000000000000000000000000000000000006001600160a01b031633145b610a815760405162461bcd60e51b81526004016103aa90611125565b6004805460ff60a81b1916600160a81b179055565b7f000000000000000000000000000000000000000000000000000000000000000081565b600454600160a81b900460ff1680610afa57507f00000000000000000000000000000000000000000000000000000000000000006001600160a01b031633145b610b165760405162461bcd60e51b81526004016103aa90611125565b600454600160a81b900460ff1680610b385750600454600160a01b900460ff16155b610b545760405162461bcd60e51b81526004016103aa90611177565b600591909155600655565b6004546001600160a01b031681565b600454600160a81b900460ff1680610bae57507f00000000000000000000000000000000000000000000000000000000000000006001600160a01b031633145b610bca5760405162461bcd60e51b81526004016103aa90611125565b600454600160a81b900460ff1680610be3575060055442105b610bff5760405162461bcd60e51b81526004016103aa9061114b565b600454600160a81b900460ff1680610c215750600454600160a01b900460ff16155b610c3d5760405162461bcd60e51b81526004016103aa90611177565b6002805460018101825560009190915261078d907f405787fa12a823e0f2b7631cc41b3ba8828b3321ca811111fa75cd3aa3bb5ace018383610e19565b600454600160a81b900460ff1680610cba57507f00000000000000000000000000000000000000000000000000000000000000006001600160a01b031633145b610cd65760405162461bcd60e51b81526004016103aa90611125565b600454600160a81b900460ff1680610d3c575060065442118015610d3c57506040805160208101825260009081905290517fc5d2460186f7233c927e7db2dcc703c0e500b653ca82273b7bfad8045d85a47091610d3291610ff9565b6040518091039020145b610d585760405162461bcd60e51b81526004016103aa906111a7565b61078d60008383610e19565b600454600160a81b900460ff1681565b600454600160a81b900460ff1680610db457507f00000000000000000000000000000000000000000000000000000000000000006001600160a01b031633145b610dd05760405162461bcd60e51b81526004016103aa90611125565b600454600160a81b900460ff1680610df757506005544210801590610df757506006544211155b610e135760405162461bcd60e51b81526004016103aa906110fb565b42600655565b828054600181600116156101000203166002900490600052602060002090601f016020900481019282610e4f5760008555610e95565b82601f10610e685782800160ff19823516178555610e95565b82800160010185558215610e95579182015b82811115610e95578235825591602001919060010190610e7a565b50610ea1929150610ea5565b5090565b5b80821115610ea15760008155600101610ea6565b600060208284031215610ecb578081fd5b81356001600160a01b0381168114610ee1578182fd5b9392505050565b600060208284031215610ef9578081fd5b81518015158114610ee1578182fd5b60008060208385031215610f1a578081fd5b823567ffffffffffffffff80821115610f31578283fd5b818501915085601f830112610f44578283fd5b813581811115610f52578384fd5b866020828501011115610f63578384fd5b60209290920196919550909350505050565b600060208284031215610f86578081fd5b5035919050565b60008060408385031215610f9f578182fd5b50508035926020909101359150565b60008151808452815b81811015610fd357602081850181015186830182015201610fb7565b81811115610fe45782602083870101525b50601f01601f19169290920160200192915050565b6000808354600180821660008114611018576001811461102f5761105e565b60ff198316865260028304607f168601935061105e565b600283048786526020808720875b838110156110565781548a82015290850190820161103d565b505050860193505b509195945050505050565b6001600160a01b0391909116815260200190565b6000602080830181845280855180835260408601915060408482028701019250838701855b828110156110d057603f198886030184526110be858351610fae565b945092850192908501906001016110a2565b5092979650505050505050565b901515815260200190565b600060208252610ee16020830184610fae565b60208082526010908201526f4e6f7420766f74696e672054696d652160801b604082015260600190565b6020808252600c908201526b57686f2061726520796f753f60a01b604082015260600190565b6020808252601290820152712b37ba34b7339034b9903737ba103cb2ba1760711b604082015260600190565b60208082526016908201527521b0b713ba1039b2ba3a34b7339030b73cb6b7b9329760511b604082015260600190565b6020808252600e908201526d2b37ba34b7339034b99032b7321760911b604082015260600190565b602080825260119082015270149958de58db19481d9bdd194811985a5b607a1b604082015260600190565b91825260208201526040019056fea26469706673582212209281a48444fb9ad08f6ba3a5b611bae5a87d250c5c0d51cd36333b86687e72a064736f6c63430007040033",
  "immutableReferences": {
    "226": [
      {
        "length": 32,
        "start": 867
      },
      {
        "length": 32,
        "start": 1402
      },
      {
        "length": 32,
        "start": 1720
      },
      {
        "length": 32,
        "start": 2618
      },
      {
        "length": 32,
        "start": 2712
      },
      {
        "length": 32,
        "start": 2767
      },
      {
        "length": 32,
        "start": 2947
      },
      {
        "length": 32,
        "start": 3215
      },
      {
        "length": 32,
        "start": 3465
      }
    ]
  },
  "source": "// SPDX-License-Identifier: MIT\npragma solidity ^0.7.4;\npragma experimental ABIEncoderV2;\n\nimport \"./VoteProvider.sol\";\n\ncontract VoteCollection {\n    string public privateKey;\n    string public publicKey;\n    string[] public candidates;\n    string[] public stronghold;\n    address immutable public owner = msg.sender;\n    address public voteProvider;\n    bool public isSettingFinish;\n    bool public isDev;\n    VoteTime public votingTime;\n\n    struct VoteTime {\n        uint startTime;\n        uint expireTime;\n    }\n\n    modifier isOwner() {\n        require(isDev || owner == msg.sender,\n            \"Who are you?\"\n        );\n        _;\n    }\n\n    modifier isEnableSetting() {\n        require(isDev || !isSettingFinish,\n            \"Can't setting anymore.\"\n        );\n        _;\n    }\n\n    modifier isBeforeVoting() {\n        require(isDev || block.timestamp < votingTime.startTime,\n            \"Voting is not yet.\"\n        );\n        _;\n    }\n\n    modifier isVotingTime() {\n        require(isDev || votingTime.startTime <= block.timestamp && block.timestamp <= votingTime.expireTime,\n            \"Not voting Time!\"\n        );\n        _;\n    }\n\n    modifier isFinishedVoting() {\n        require(isDev || block.timestamp > votingTime.expireTime && keccak256(bytes(privateKey)) == keccak256(bytes(\"\")),\n            \"Voting is end.\"\n        );\n        _;\n    }\n\n    // ;\n    function voteTo(string calldata data) public isVotingTime returns (bool) {\n        VoteProvider vote = VoteProvider(voteProvider);\n        bool success = vote.recycleVote(msg.sender);\n        require(success, \"Recycle vote Fail\");\n\n        stronghold.push(data);\n\n        return success;\n    }\n\n    //  ;\n    function setTime(uint _startTime, uint _expireTime) public isOwner isEnableSetting{\n        votingTime.startTime = _startTime;\n        votingTime.expireTime = _expireTime;\n    }\n\n    //  ;\n    function introduceCandidate(string calldata _introduce) public isOwner isBeforeVoting isEnableSetting{\n        candidates.push(_introduce);\n    }\n\n    //  \n    function setVoteProvider(address _provider) public isOwner isBeforeVoting isEnableSetting{\n        voteProvider = _provider;\n    }\n\n    //  ;\n    function stopSetAnymore() public isOwner isBeforeVoting isEnableSetting{\n        isSettingFinish = true;\n    }\n\n    //  ;\n    function setPrivateKey(string calldata _privateKey) public isOwner isFinishedVoting{\n        privateKey = _privateKey;\n    }\n\n    //  ;\n    function setPublicKey(string calldata _publicKey) public isOwner isFinishedVoting{\n        publicKey = _publicKey;\n    }\n\n    //  ;\n    function getCandidates() public view returns(string[] memory) {\n        return candidates;\n    }\n\n    // ;\n    function getVoteResult() public view isFinishedVoting returns (string[] memory){\n        return stronghold;\n    }\n\n    /*  */\n\n    // \n    function stopVoting() public isOwner isVotingTime {\n        votingTime.expireTime = block.timestamp;\n    }\n\n    // \n    function SPECIAL_TIME() public isOwner {\n        isDev = true;\n    }\n}\n",
  "sourcePath": "/Users/sera/BlockChain-Voting/contracts/VoteCollection.sol",
  "compiler": {
    "name": "solc",
    "version": "0.7.4+commit.3f05b770.Emscripten.clang"
  },
  "schemaVersion": "3.3.1",
  "updatedAt": "2020-10-31T13:23:47.727Z",
  "networkType": "ethereum",
  "devdoc": {
    "kind": "dev",
    "methods": {},
    "version": 1
  },
  "userdoc": {
    "kind": "user",
    "methods": {},
    "version": 1
  }
}