{
  "contractName": "VoteCollection",
  "abi": [
    {
      "inputs": [
        {
          "internalType": "uint256",
          "name": "",
          "type": "uint256"
        }
      ],
      "name": "candidates",
      "outputs": [
        {
          "internalType": "string",
          "name": "",
          "type": "string"
        }
      ],
      "stateMutability": "view",
      "type": "function",
      "constant": true
    },
    {
      "inputs": [],
      "name": "isDev",
      "outputs": [
        {
          "internalType": "bool",
          "name": "",
          "type": "bool"
        }
      ],
      "stateMutability": "view",
      "type": "function",
      "constant": true
    },
    {
      "inputs": [],
      "name": "isSettingFinish",
      "outputs": [
        {
          "internalType": "bool",
          "name": "",
          "type": "bool"
        }
      ],
      "stateMutability": "view",
      "type": "function",
      "constant": true
    },
    {
      "inputs": [],
      "name": "owner",
      "outputs": [
        {
          "internalType": "address",
          "name": "",
          "type": "address"
        }
      ],
      "stateMutability": "view",
      "type": "function",
      "constant": true
    },
    {
      "inputs": [],
      "name": "privateKey",
      "outputs": [
        {
          "internalType": "string",
          "name": "",
          "type": "string"
        }
      ],
      "stateMutability": "view",
      "type": "function",
      "constant": true
    },
    {
      "inputs": [
        {
          "internalType": "uint256",
          "name": "",
          "type": "uint256"
        }
      ],
      "name": "stronghold",
      "outputs": [
        {
          "internalType": "string",
          "name": "",
          "type": "string"
        }
      ],
      "stateMutability": "view",
      "type": "function",
      "constant": true
    },
    {
      "inputs": [],
      "name": "voteProvider",
      "outputs": [
        {
          "internalType": "address",
          "name": "",
          "type": "address"
        }
      ],
      "stateMutability": "view",
      "type": "function",
      "constant": true
    },
    {
      "inputs": [],
      "name": "votingTime",
      "outputs": [
        {
          "internalType": "uint256",
          "name": "startTime",
          "type": "uint256"
        },
        {
          "internalType": "uint256",
          "name": "expireTime",
          "type": "uint256"
        }
      ],
      "stateMutability": "view",
      "type": "function",
      "constant": true
    },
    {
      "inputs": [
        {
          "internalType": "string",
          "name": "data",
          "type": "string"
        }
      ],
      "name": "voteTo",
      "outputs": [
        {
          "internalType": "bool",
          "name": "",
          "type": "bool"
        }
      ],
      "stateMutability": "nonpayable",
      "type": "function"
    },
    {
      "inputs": [
        {
          "internalType": "uint256",
          "name": "_startTime",
          "type": "uint256"
        },
        {
          "internalType": "uint256",
          "name": "_expireTime",
          "type": "uint256"
        }
      ],
      "name": "setTime",
      "outputs": [],
      "stateMutability": "nonpayable",
      "type": "function"
    },
    {
      "inputs": [
        {
          "internalType": "string",
          "name": "_introduce",
          "type": "string"
        }
      ],
      "name": "introduceCandidate",
      "outputs": [],
      "stateMutability": "nonpayable",
      "type": "function"
    },
    {
      "inputs": [
        {
          "internalType": "address",
          "name": "_provider",
          "type": "address"
        }
      ],
      "name": "setVoteProvider",
      "outputs": [],
      "stateMutability": "nonpayable",
      "type": "function"
    },
    {
      "inputs": [],
      "name": "stopSetAnymore",
      "outputs": [],
      "stateMutability": "nonpayable",
      "type": "function"
    },
    {
      "inputs": [
        {
          "internalType": "string",
          "name": "_privateKey",
          "type": "string"
        }
      ],
      "name": "setPrivateKey",
      "outputs": [],
      "stateMutability": "nonpayable",
      "type": "function"
    },
    {
      "inputs": [],
      "name": "getCandidates",
      "outputs": [
        {
          "internalType": "string[]",
          "name": "",
          "type": "string[]"
        }
      ],
      "stateMutability": "view",
      "type": "function",
      "constant": true
    },
    {
      "inputs": [],
      "name": "getVoteResult",
      "outputs": [
        {
          "internalType": "string[]",
          "name": "",
          "type": "string[]"
        }
      ],
      "stateMutability": "view",
      "type": "function",
      "constant": true
    },
    {
      "inputs": [],
      "name": "stopVoting",
      "outputs": [],
      "stateMutability": "nonpayable",
      "type": "function"
    },
    {
      "inputs": [],
      "name": "SPECIAL_TIME",
      "outputs": [],
      "stateMutability": "nonpayable",
      "type": "function"
    }
  ],
  "bytecode": "0x60a06040523360601b60805234801561001757600080fd5b5060805160601c6110c961005860003980610332528061054952806108c1528061091f52806109565280610a0a5280610b1a5280610c1452506110c96000f3fe608060405234801561001057600080fd5b50600436106101165760003560e01c80638742fc3b116100a2578063d0ca2ea411610071578063d0ca2ea414610207578063dc402a8f1461020f578063e0d4f01714610222578063f079914f14610235578063fab2f86b1461023d57610116565b80638742fc3b146101cf5780638d840e86146101d75780638da5cb5b146101df578063a0355eca146101f457610116565b80633477ee2e116100e95780633477ee2e1461018457806349da5a0f146101975780635eb9ff5e1461019f578063733fa3c9146101a757806380d1020a146101bc57610116565b806306a49fce1461011b57806313ef9851146101395780631cbe482d1461014e57806334391fb814610164575b600080fd5b610123610245565b6040516101309190610f08565b60405180910390f35b61014c610147366004610d45565b61031d565b005b610156610417565b604051610130929190611085565b610177610172366004610e00565b610420565b6040516101309190610f73565b610177610192366004610e00565b6104c9565b6101776104d9565b61014c610534565b6101af610618565b6040516101309190610f68565b6101af6101ca366004610d93565b610628565b61012361075a565b61014c6108ac565b6101e761091d565b6040516101309190610ef4565b61014c610202366004610e18565b610941565b6101e76109e6565b61014c61021d366004610d93565b6109f5565b61014c610230366004610d93565b610b05565b6101af610bef565b61014c610bff565b60606001805480602002602001604051908101604052809291908181526020016000905b828210156103145760008481526020908190208301805460408051601f60026000196101006001871615020190941693909304928301859004850281018501909152818152928301828280156103005780601f106102d557610100808354040283529160200191610300565b820191906000526020600020905b8154815290600101906020018083116102e357829003601f168201915b505050505081526020019060010190610269565b50505050905090565b600354600160a81b900460ff168061035d57507f00000000000000000000000000000000000000000000000000000000000000006001600160a01b031633145b6103825760405162461bcd60e51b815260040161037990610fb0565b60405180910390fd5b600354600160a81b900460ff168061039b575060045442105b6103b75760405162461bcd60e51b815260040161037990610fd6565b600354600160a81b900460ff16806103d95750600354600160a01b900460ff16155b6103f55760405162461bcd60e51b815260040161037990611002565b600380546001600160a01b0319166001600160a01b0392909216919091179055565b60045460055482565b6002818154811061043057600080fd5b600091825260209182902001805460408051601f60026000196101006001871615020190941693909304928301859004850281018501909152818152935090918301828280156104c15780601f10610496576101008083540402835291602001916104c1565b820191906000526020600020905b8154815290600101906020018083116104a457829003601f168201915b505050505081565b6001818154811061043057600080fd5b6000805460408051602060026001851615610100026000190190941693909304601f810184900484028201840190925281815292918301828280156104c15780601f10610496576101008083540402835291602001916104c1565b600354600160a81b900460ff168061057457507f00000000000000000000000000000000000000000000000000000000000000006001600160a01b031633145b6105905760405162461bcd60e51b815260040161037990610fb0565b600354600160a81b900460ff16806105a9575060045442105b6105c55760405162461bcd60e51b815260040161037990610fd6565b600354600160a81b900460ff16806105e75750600354600160a01b900460ff16155b6106035760405162461bcd60e51b815260040161037990611002565b6003805460ff60a01b1916600160a01b179055565b600354600160a01b900460ff1681565b600354600090600160a81b900460ff16806106525750600454421080159061065257506005544211155b61066e5760405162461bcd60e51b815260040161037990610f86565b60035460405163f3e31cab60e01b81526001600160a01b0390911690600090829063f3e31cab906106a3903390600401610ef4565b602060405180830381600087803b1580156106bd57600080fd5b505af11580156106d1573d6000803e3d6000fd5b505050506040513d601f19601f820116820180604052508101906106f59190610d73565b9050806107145760405162461bcd60e51b81526004016103799061105a565b60028054600181018255600091909152610751907f405787fa12a823e0f2b7631cc41b3ba8828b3321ca811111fa75cd3aa3bb5ace018686610ca4565b50949350505050565b600354606090600160a81b900460ff16806107c35750600554421180156107c357506040805160208101825260009081905290517fc5d2460186f7233c927e7db2dcc703c0e500b653ca82273b7bfad8045d85a470916107b991610e84565b6040518091039020145b6107df5760405162461bcd60e51b815260040161037990611032565b6002805480602002602001604051908101604052809291908181526020016000905b828210156103145760008481526020908190208301805460408051601f60026000196101006001871615020190941693909304928301859004850281018501909152818152928301828280156108985780601f1061086d57610100808354040283529160200191610898565b820191906000526020600020905b81548152906001019060200180831161087b57829003601f168201915b505050505081526020019060010190610801565b600354600160a81b900460ff16806108ec57507f00000000000000000000000000000000000000000000000000000000000000006001600160a01b031633145b6109085760405162461bcd60e51b815260040161037990610fb0565b6003805460ff60a81b1916600160a81b179055565b7f000000000000000000000000000000000000000000000000000000000000000081565b600354600160a81b900460ff168061098157507f00000000000000000000000000000000000000000000000000000000000000006001600160a01b031633145b61099d5760405162461bcd60e51b815260040161037990610fb0565b600354600160a81b900460ff16806109bf5750600354600160a01b900460ff16155b6109db5760405162461bcd60e51b815260040161037990611002565b600491909155600555565b6003546001600160a01b031681565b600354600160a81b900460ff1680610a3557507f00000000000000000000000000000000000000000000000000000000000000006001600160a01b031633145b610a515760405162461bcd60e51b815260040161037990610fb0565b600354600160a81b900460ff1680610a6a575060045442105b610a865760405162461bcd60e51b815260040161037990610fd6565b600354600160a81b900460ff1680610aa85750600354600160a01b900460ff16155b610ac45760405162461bcd60e51b815260040161037990611002565b600180548082018255600091909152610b00907fb10e2d527612073b26eecdfd717e6a320cf44b4afac2b0732d9fcbe2b7fa0cf6018383610ca4565b505050565b600354600160a81b900460ff1680610b4557507f00000000000000000000000000000000000000000000000000000000000000006001600160a01b031633145b610b615760405162461bcd60e51b815260040161037990610fb0565b600354600160a81b900460ff1680610bc7575060055442118015610bc757506040805160208101825260009081905290517fc5d2460186f7233c927e7db2dcc703c0e500b653ca82273b7bfad8045d85a47091610bbd91610e84565b6040518091039020145b610be35760405162461bcd60e51b815260040161037990611032565b610b0060008383610ca4565b600354600160a81b900460ff1681565b600354600160a81b900460ff1680610c3f57507f00000000000000000000000000000000000000000000000000000000000000006001600160a01b031633145b610c5b5760405162461bcd60e51b815260040161037990610fb0565b600354600160a81b900460ff1680610c8257506004544210801590610c8257506005544211155b610c9e5760405162461bcd60e51b815260040161037990610f86565b42600555565b828054600181600116156101000203166002900490600052602060002090601f016020900481019282610cda5760008555610d20565b82601f10610cf35782800160ff19823516178555610d20565b82800160010185558215610d20579182015b82811115610d20578235825591602001919060010190610d05565b50610d2c929150610d30565b5090565b5b80821115610d2c5760008155600101610d31565b600060208284031215610d56578081fd5b81356001600160a01b0381168114610d6c578182fd5b9392505050565b600060208284031215610d84578081fd5b81518015158114610d6c578182fd5b60008060208385031215610da5578081fd5b823567ffffffffffffffff80821115610dbc578283fd5b818501915085601f830112610dcf578283fd5b813581811115610ddd578384fd5b866020828501011115610dee578384fd5b60209290920196919550909350505050565b600060208284031215610e11578081fd5b5035919050565b60008060408385031215610e2a578182fd5b50508035926020909101359150565b60008151808452815b81811015610e5e57602081850181015186830182015201610e42565b81811115610e6f5782602083870101525b50601f01601f19169290920160200192915050565b6000808354600180821660008114610ea35760018114610eba57610ee9565b60ff198316865260028304607f1686019350610ee9565b600283048786526020808720875b83811015610ee15781548a820152908501908201610ec8565b505050860193505b509195945050505050565b6001600160a01b0391909116815260200190565b6000602080830181845280855180835260408601915060408482028701019250838701855b82811015610f5b57603f19888603018452610f49858351610e39565b94509285019290850190600101610f2d565b5092979650505050505050565b901515815260200190565b600060208252610d6c6020830184610e39565b60208082526010908201526f4e6f7420766f74696e672054696d652160801b604082015260600190565b6020808252600c908201526b57686f2061726520796f753f60a01b604082015260600190565b6020808252601290820152712b37ba34b7339034b9903737ba103cb2ba1760711b604082015260600190565b60208082526016908201527521b0b713ba1039b2ba3a34b7339030b73cb6b7b9329760511b604082015260600190565b6020808252600e908201526d2b37ba34b7339034b99032b7321760911b604082015260600190565b602080825260119082015270149958de58db19481d9bdd194811985a5b607a1b604082015260600190565b91825260208201526040019056fea2646970667358221220847e13bc869e815115e918f3dd0f9e8b2bc8567964144551ea482165e45e2c6c64736f6c63430007040033",
  "immutableReferences": {
    "224": [
      {
        "length": 32,
        "start": 818
      },
      {
        "length": 32,
        "start": 1353
      },
      {
        "length": 32,
        "start": 2241
      },
      {
        "length": 32,
        "start": 2335
      },
      {
        "length": 32,
        "start": 2390
      },
      {
        "length": 32,
        "start": 2570
      },
      {
        "length": 32,
        "start": 2842
      },
      {
        "length": 32,
        "start": 3092
      }
    ]
  },
  "source": "// SPDX-License-Identifier: MIT\npragma solidity ^0.7.4;\npragma experimental ABIEncoderV2;\n\nimport \"./VoteProvider.sol\";\n\ncontract VoteCollection {\n    string public privateKey;\n    string[] public candidates;\n    string[] public stronghold;\n    address immutable public owner = msg.sender;\n    address public voteProvider;\n    bool public isSettingFinish;\n    bool public isDev;\n    VoteTime public votingTime;\n\n    struct VoteTime {\n        uint startTime;\n        uint expireTime;\n    }\n\n    modifier isOwner() {\n        require(isDev || owner == msg.sender,\n            \"Who are you?\"\n        );\n        _;\n    }\n\n    modifier isEnableSetting() {\n        require(isDev || !isSettingFinish,\n            \"Can't setting anymore.\"\n        );\n        _;\n    }\n\n    modifier isBeforeVoting() {\n        require(isDev || block.timestamp < votingTime.startTime,\n            \"Voting is not yet.\"\n        );\n        _;\n    }\n\n    modifier isVotingTime() {\n        require(isDev || votingTime.startTime <= block.timestamp && block.timestamp <= votingTime.expireTime,\n            \"Not voting Time!\"\n        );\n        _;\n    }\n\n    modifier isFinishedVoting() {\n        require(isDev || block.timestamp > votingTime.expireTime && keccak256(bytes(privateKey)) == keccak256(bytes(\"\")),\n            \"Voting is end.\"\n        );\n        _;\n    }\n\n    // ;\n    function voteTo(string calldata data) public isVotingTime returns (bool) {\n        VoteProvider vote = VoteProvider(voteProvider);\n        bool success = vote.recycleVote(msg.sender);\n        require(success, \"Recycle vote Fail\");\n\n        stronghold.push(data);\n\n        return success;\n    }\n\n    //  ;\n    function setTime(uint _startTime, uint _expireTime) public isOwner isEnableSetting{\n        votingTime.startTime = _startTime;\n        votingTime.expireTime = _expireTime;\n    }\n\n    //  ;\n    function introduceCandidate(string calldata _introduce) public isOwner isBeforeVoting isEnableSetting{\n        candidates.push(_introduce);\n    }\n\n    //  \n    function setVoteProvider(address _provider) public isOwner isBeforeVoting isEnableSetting{\n        voteProvider = _provider;\n    }\n\n    //  ;\n    function stopSetAnymore() public isOwner isBeforeVoting isEnableSetting{\n        isSettingFinish = true;\n    }\n\n    //  ;\n    function setPrivateKey(string calldata _privateKey) public isOwner isFinishedVoting{\n        privateKey = _privateKey;\n    }\n\n    //  ;\n    function getCandidates() public view returns(string[] memory) {\n        return candidates;\n    }\n\n    // ;\n    function getVoteResult() public view isFinishedVoting returns (string[] memory){\n        return stronghold;\n    }\n\n    /*  */\n\n    // \n    function stopVoting() public isOwner isVotingTime {\n        votingTime.expireTime = block.timestamp;\n    }\n\n    // \n    function SPECIAL_TIME() public isOwner {\n        isDev = true;\n    }\n}\n",
  "sourcePath": "/Users/xillis_wu/Documents/voting-syetem/contracts/VoteCollection.sol",
  "compiler": {
    "name": "solc",
    "version": "0.7.4+commit.3f05b770.Emscripten.clang"
  },
  "schemaVersion": "3.3.1",
  "updatedAt": "2020-10-31T12:08:03.810Z",
  "networkType": "ethereum",
  "devdoc": {
    "kind": "dev",
    "methods": {},
    "version": 1
  },
  "userdoc": {
    "kind": "user",
    "methods": {},
    "version": 1
  }
}