{
  "contractName": "VoteCollection",
  "abi": [
    {
      "inputs": [
        {
          "internalType": "uint256",
          "name": "",
          "type": "uint256"
        }
      ],
      "name": "candidates",
      "outputs": [
        {
          "internalType": "string",
          "name": "",
          "type": "string"
        }
      ],
      "stateMutability": "view",
      "type": "function",
      "constant": true
    },
    {
      "inputs": [],
      "name": "isSettingFinish",
      "outputs": [
        {
          "internalType": "bool",
          "name": "",
          "type": "bool"
        }
      ],
      "stateMutability": "view",
      "type": "function",
      "constant": true
    },
    {
      "inputs": [],
      "name": "owner",
      "outputs": [
        {
          "internalType": "address",
          "name": "",
          "type": "address"
        }
      ],
      "stateMutability": "view",
      "type": "function",
      "constant": true
    },
    {
      "inputs": [],
      "name": "privateKey",
      "outputs": [
        {
          "internalType": "string",
          "name": "",
          "type": "string"
        }
      ],
      "stateMutability": "view",
      "type": "function",
      "constant": true
    },
    {
      "inputs": [
        {
          "internalType": "uint256",
          "name": "",
          "type": "uint256"
        }
      ],
      "name": "stronghold",
      "outputs": [
        {
          "internalType": "string",
          "name": "",
          "type": "string"
        }
      ],
      "stateMutability": "view",
      "type": "function",
      "constant": true
    },
    {
      "inputs": [],
      "name": "voteProvider",
      "outputs": [
        {
          "internalType": "address",
          "name": "",
          "type": "address"
        }
      ],
      "stateMutability": "view",
      "type": "function",
      "constant": true
    },
    {
      "inputs": [],
      "name": "votingTime",
      "outputs": [
        {
          "internalType": "uint256",
          "name": "startTime",
          "type": "uint256"
        },
        {
          "internalType": "uint256",
          "name": "expireTime",
          "type": "uint256"
        }
      ],
      "stateMutability": "view",
      "type": "function",
      "constant": true
    },
    {
      "inputs": [],
      "name": "stopVoting",
      "outputs": [],
      "stateMutability": "nonpayable",
      "type": "function"
    },
    {
      "inputs": [
        {
          "internalType": "string",
          "name": "data",
          "type": "string"
        }
      ],
      "name": "voteTo",
      "outputs": [
        {
          "internalType": "bool",
          "name": "",
          "type": "bool"
        }
      ],
      "stateMutability": "nonpayable",
      "type": "function"
    },
    {
      "inputs": [
        {
          "internalType": "uint256",
          "name": "_startTime",
          "type": "uint256"
        },
        {
          "internalType": "uint256",
          "name": "_expireTime",
          "type": "uint256"
        }
      ],
      "name": "setTime",
      "outputs": [],
      "stateMutability": "nonpayable",
      "type": "function"
    },
    {
      "inputs": [
        {
          "internalType": "string",
          "name": "_introduce",
          "type": "string"
        }
      ],
      "name": "introduceCandidate",
      "outputs": [],
      "stateMutability": "nonpayable",
      "type": "function"
    },
    {
      "inputs": [
        {
          "internalType": "address",
          "name": "_provider",
          "type": "address"
        }
      ],
      "name": "setVoteProvider",
      "outputs": [],
      "stateMutability": "nonpayable",
      "type": "function"
    },
    {
      "inputs": [],
      "name": "stopSetAnymore",
      "outputs": [],
      "stateMutability": "nonpayable",
      "type": "function"
    },
    {
      "inputs": [
        {
          "internalType": "string",
          "name": "_privateKey",
          "type": "string"
        }
      ],
      "name": "setPrivateKey",
      "outputs": [],
      "stateMutability": "nonpayable",
      "type": "function"
    },
    {
      "inputs": [],
      "name": "getCandidates",
      "outputs": [
        {
          "internalType": "string[]",
          "name": "",
          "type": "string[]"
        }
      ],
      "stateMutability": "view",
      "type": "function",
      "constant": true
    },
    {
      "inputs": [],
      "name": "getVoteResult",
      "outputs": [
        {
          "internalType": "string[]",
          "name": "",
          "type": "string[]"
        }
      ],
      "stateMutability": "view",
      "type": "function",
      "constant": true
    }
  ],
  "bytecode": "0x60a06040523360601b60805234801561001757600080fd5b5060805160601c6109916100356000398061062152506109916000f3fe608060405234801561001057600080fd5b50600436106101005760003560e01c806380d1020a11610097578063d0ca2ea411610066578063d0ca2ea4146101e9578063dc402a8f146101f1578063e0d4f01714610204578063fab2f86b1461021757610100565b806380d1020a146101a65780638742fc3b146101b95780638da5cb5b146101c1578063a0355eca146101d657610100565b80633477ee2e116100d35780633477ee2e1461016e57806349da5a0f146101815780635eb9ff5e14610189578063733fa3c91461019157610100565b806306a49fce1461010557806313ef9851146101235780631cbe482d1461013857806334391fb81461014e575b600080fd5b61010d61021f565b60405161011a91906108a4565b60405180910390f35b610136610131366004610751565b6102f7565b005b610140610319565b60405161011a92919061094d565b61016161015c36600461080c565b610322565b60405161011a919061090f565b61016161017c36600461080c565b6103cb565b6101616103db565b610136610436565b61019961044b565b60405161011a9190610904565b6101996101b436600461079f565b61045b565b61010d610550565b6101c961061f565b60405161011a9190610890565b6101366101e4366004610824565b610643565b6101c961064e565b6101366101ff36600461079f565b61065d565b61013661021236600461079f565b61069e565b6101366106aa565b60606001805480602002602001604051908101604052809291908181526020016000905b828210156102ee5760008481526020908190208301805460408051601f60026000196101006001871615020190941693909304928301859004850281018501909152818152928301828280156102da5780601f106102af576101008083540402835291602001916102da565b820191906000526020600020905b8154815290600101906020018083116102bd57829003601f168201915b505050505081526020019060010190610243565b50505050905090565b600380546001600160a01b0319166001600160a01b0392909216919091179055565b60045460055482565b6002818154811061033257600080fd5b600091825260209182902001805460408051601f60026000196101006001871615020190941693909304928301859004850281018501909152818152935090918301828280156103c35780601f10610398576101008083540402835291602001916103c3565b820191906000526020600020905b8154815290600101906020018083116103a657829003601f168201915b505050505081565b6001818154811061033257600080fd5b6000805460408051602060026001851615610100026000190190941693909304601f810184900484028201840190925281815292918301828280156103c35780601f10610398576101008083540402835291602001916103c3565b6003805460ff60a01b1916600160a01b179055565b600354600160a01b900460ff1681565b60035460405163f3e31cab60e01b81526000916001600160a01b0316908290829063f3e31cab90610490903390600401610890565b602060405180830381600087803b1580156104aa57600080fd5b505af11580156104be573d6000803e3d6000fd5b505050506040513d601f19601f820116820180604052508101906104e2919061077f565b90508061050a5760405162461bcd60e51b815260040161050190610922565b60405180910390fd5b60028054600181018255600091909152610547907f405787fa12a823e0f2b7631cc41b3ba8828b3321ca811111fa75cd3aa3bb5ace0186866106b0565b50949350505050565b60606002805480602002602001604051908101604052809291908181526020016000905b828210156102ee5760008481526020908190208301805460408051601f600260001961010060018716150201909416939093049283018590048502810185019091528181529283018282801561060b5780601f106105e05761010080835404028352916020019161060b565b820191906000526020600020905b8154815290600101906020018083116105ee57829003601f168201915b505050505081526020019060010190610574565b7f000000000000000000000000000000000000000000000000000000000000000081565b600491909155600555565b6003546001600160a01b031681565b600180548082018255600091909152610699907fb10e2d527612073b26eecdfd717e6a320cf44b4afac2b0732d9fcbe2b7fa0cf60183836106b0565b505050565b610699600083836106b0565b42600555565b828054600181600116156101000203166002900490600052602060002090601f0160209004810192826106e6576000855561072c565b82601f106106ff5782800160ff1982351617855561072c565b8280016001018555821561072c579182015b8281111561072c578235825591602001919060010190610711565b5061073892915061073c565b5090565b5b80821115610738576000815560010161073d565b600060208284031215610762578081fd5b81356001600160a01b0381168114610778578182fd5b9392505050565b600060208284031215610790578081fd5b81518015158114610778578182fd5b600080602083850312156107b1578081fd5b823567ffffffffffffffff808211156107c8578283fd5b818501915085601f8301126107db578283fd5b8135818111156107e9578384fd5b8660208285010111156107fa578384fd5b60209290920196919550909350505050565b60006020828403121561081d578081fd5b5035919050565b60008060408385031215610836578182fd5b50508035926020909101359150565b60008151808452815b8181101561086a5760208185018101518683018201520161084e565b8181111561087b5782602083870101525b50601f01601f19169290920160200192915050565b6001600160a01b0391909116815260200190565b6000602080830181845280855180835260408601915060408482028701019250838701855b828110156108f757603f198886030184526108e5858351610845565b945092850192908501906001016108c9565b5092979650505050505050565b901515815260200190565b6000602082526107786020830184610845565b602080825260119082015270149958de58db19481d9bdd194811985a5b607a1b604082015260600190565b91825260208201526040019056fea26469706673582212201437d94f0ebf35280ba8dc5c1d8a6a2dc4d242663eced3405aca9e414053c33064736f6c63430007040033",
  "immutableReferences": {
    "224": [
      {
        "length": 32,
        "start": 1569
      }
    ]
  },
  "source": "// SPDX-License-Identifier: MIT\npragma solidity ^0.7.4;\npragma experimental ABIEncoderV2;\n\nimport \"./VoteProvider.sol\";\n\ncontract VoteCollection {\n    string public privateKey;\n    string[] public candidates;\n    string[] public stronghold;\n    address immutable public owner = msg.sender;\n    address public voteProvider;\n    bool public isSettingFinish;\n    VoteTime public votingTime;\n\n    struct VoteTime {\n        uint startTime;\n        uint expireTime;\n    }\n\n    modifier isOwner() {\n        require(\n        true\n//            owner == msg.sender, \"Who are you?\"\n        );\n        _;\n    }\n\n    modifier isEnableSetting() {\n        require(\n            true\n//            !isSettingFinish, \"Can't setting anymore.\"\n        );\n        _;\n    }\n\n    modifier isBeforeVoting() {\n        require(\n            true\n//            block.timestamp < votingTime.startTime, \"Voting is not yet.\"\n        );\n        _;\n    }\n\n    modifier isVotingTime() {\n        require(\n            true\n//            votingTime.startTime <= block.timestamp && block.timestamp <= votingTime.expireTime,\n//            \"Not voting Time!\"\n        );\n        _;\n    }\n\n    modifier isFinishedVoting() {\n        require(\n            true\n//            block.timestamp > votingTime.expireTime && keccak256(bytes(privateKey)) == keccak256(bytes(\"\")),\n//            \"Voting is end.\"\n        );\n        _;\n    }\n\n   // \n   function stopVoting() public isOwner isVotingTime {\n        votingTime.expireTime = block.timestamp;\n    }\n\n    // ;\n    function voteTo(string calldata data) public isVotingTime returns (bool) {\n        VoteProvider vote = VoteProvider(voteProvider);\n        bool success = vote.recycleVote(msg.sender);\n        require(success, \"Recycle vote Fail\");\n\n        stronghold.push(data);\n\n        return success;\n    }\n\n    //  ;\n    function setTime(uint _startTime, uint _expireTime) public isOwner isEnableSetting{\n        votingTime.startTime = _startTime;\n        votingTime.expireTime = _expireTime;\n    }\n\n    //  ;\n    function introduceCandidate(string calldata _introduce) public isOwner isBeforeVoting isEnableSetting{\n        candidates.push(_introduce);\n    }\n\n    //  \n    function setVoteProvider(address _provider) public isOwner isBeforeVoting isEnableSetting{\n        voteProvider = _provider;\n    }\n\n    //  ;\n    function stopSetAnymore() public isOwner isBeforeVoting isEnableSetting{\n        isSettingFinish = true;\n    }\n\n    //  ;\n    function setPrivateKey(string calldata _privateKey) public isOwner isFinishedVoting{\n        privateKey = _privateKey;\n    }\n\n    //  ;\n    function getCandidates() public view returns(string[] memory) {\n        return candidates;\n    }\n\n    // ;\n    function getVoteResult() public view isFinishedVoting returns (string[] memory){\n        return stronghold;\n    }\n}\n",
  "sourcePath": "/Users/xillis_wu/Documents/voting-syetem/contracts/VoteCollection.sol",
  "compiler": {
    "name": "solc",
    "version": "0.7.4+commit.3f05b770.Emscripten.clang"
  },
  "schemaVersion": "3.3.1",
  "updatedAt": "2020-10-31T09:41:34.653Z",
  "networkType": "ethereum",
  "devdoc": {
    "kind": "dev",
    "methods": {},
    "version": 1
  },
  "userdoc": {
    "kind": "user",
    "methods": {},
    "version": 1
  }
}