{
  "contractName": "VoteCollection",
  "abi": [
    {
      "inputs": [
        {
          "internalType": "uint256",
          "name": "",
          "type": "uint256"
        }
      ],
      "name": "candidates",
      "outputs": [
        {
          "internalType": "string",
          "name": "",
          "type": "string"
        }
      ],
      "stateMutability": "view",
      "type": "function",
      "constant": true
    },
    {
      "inputs": [],
      "name": "isSettingFinish",
      "outputs": [
        {
          "internalType": "bool",
          "name": "",
          "type": "bool"
        }
      ],
      "stateMutability": "view",
      "type": "function",
      "constant": true
    },
    {
      "inputs": [],
      "name": "owner",
      "outputs": [
        {
          "internalType": "address",
          "name": "",
          "type": "address"
        }
      ],
      "stateMutability": "view",
      "type": "function",
      "constant": true
    },
    {
      "inputs": [],
      "name": "privateKey",
      "outputs": [
        {
          "internalType": "string",
          "name": "",
          "type": "string"
        }
      ],
      "stateMutability": "view",
      "type": "function",
      "constant": true
    },
    {
      "inputs": [
        {
          "internalType": "uint256",
          "name": "",
          "type": "uint256"
        }
      ],
      "name": "stronghold",
      "outputs": [
        {
          "internalType": "string",
          "name": "",
          "type": "string"
        }
      ],
      "stateMutability": "view",
      "type": "function",
      "constant": true
    },
    {
      "inputs": [],
      "name": "voteProvider",
      "outputs": [
        {
          "internalType": "address",
          "name": "",
          "type": "address"
        }
      ],
      "stateMutability": "view",
      "type": "function",
      "constant": true
    },
    {
      "inputs": [],
      "name": "votingTime",
      "outputs": [
        {
          "internalType": "uint256",
          "name": "startTime",
          "type": "uint256"
        },
        {
          "internalType": "uint256",
          "name": "expireTime",
          "type": "uint256"
        }
      ],
      "stateMutability": "view",
      "type": "function",
      "constant": true
    },
    {
      "inputs": [
        {
          "internalType": "string",
          "name": "data",
          "type": "string"
        }
      ],
      "name": "voteTo",
      "outputs": [
        {
          "internalType": "bytes",
          "name": "",
          "type": "bytes"
        }
      ],
      "stateMutability": "nonpayable",
      "type": "function"
    },
    {
      "inputs": [
        {
          "internalType": "uint256",
          "name": "_startTime",
          "type": "uint256"
        },
        {
          "internalType": "uint256",
          "name": "_expireTime",
          "type": "uint256"
        }
      ],
      "name": "setTime",
      "outputs": [],
      "stateMutability": "nonpayable",
      "type": "function"
    },
    {
      "inputs": [
        {
          "internalType": "string",
          "name": "_introduce",
          "type": "string"
        }
      ],
      "name": "introduceCandidate",
      "outputs": [],
      "stateMutability": "nonpayable",
      "type": "function"
    },
    {
      "inputs": [
        {
          "internalType": "address",
          "name": "_provider",
          "type": "address"
        }
      ],
      "name": "setVoteProvider",
      "outputs": [],
      "stateMutability": "nonpayable",
      "type": "function"
    },
    {
      "inputs": [],
      "name": "stopSetAnymore",
      "outputs": [],
      "stateMutability": "nonpayable",
      "type": "function"
    },
    {
      "inputs": [
        {
          "internalType": "string",
          "name": "_privateKey",
          "type": "string"
        }
      ],
      "name": "setPrivateKey",
      "outputs": [],
      "stateMutability": "nonpayable",
      "type": "function"
    },
    {
      "inputs": [],
      "name": "getCandidates",
      "outputs": [
        {
          "internalType": "string[]",
          "name": "",
          "type": "string[]"
        }
      ],
      "stateMutability": "view",
      "type": "function",
      "constant": true
    },
    {
      "inputs": [],
      "name": "getVoteResult",
      "outputs": [
        {
          "internalType": "string[]",
          "name": "",
          "type": "string[]"
        }
      ],
      "stateMutability": "view",
      "type": "function",
      "constant": true
    }
  ],
  "bytecode": "0x60a06040523360601b60805234801561001757600080fd5b5060805160601c610e2b61004e600039806102e652806104c152806107e35280610807528061089352806109675250610e2b6000f3fe608060405234801561001057600080fd5b50600436106100f55760003560e01c8063733fa3c911610097578063a0355eca11610066578063a0355eca146101cb578063d0ca2ea4146101de578063dc402a8f146101e6578063e0d4f017146101f9576100f5565b8063733fa3c91461018657806380d1020a1461019b5780638742fc3b146101ae5780638da5cb5b146101b6576100f5565b806334391fb8116100d357806334391fb8146101435780633477ee2e1461016357806349da5a0f146101765780635eb9ff5e1461017e576100f5565b806306a49fce146100fa57806313ef9851146101185780631cbe482d1461012d575b600080fd5b61010261020c565b60405161010f9190610c65565b60405180910390f35b61012b610126366004610ac5565b6102e4565b005b6101356103a2565b60405161010f929190610db7565b610156610151366004610b60565b6103ab565b60405161010f9190610cd0565b610156610171366004610b60565b610454565b610156610464565b61012b6104bf565b61018e610567565b60405161010f9190610cc5565b6101566101a9366004610af3565b610577565b6101026106a2565b6101be6107e1565b60405161010f9190610c51565b61012b6101d9366004610b78565b610805565b6101be610882565b61012b6101f4366004610af3565b610891565b61012b610207366004610af3565b610965565b60606001805480602002602001604051908101604052809291908181526020016000905b828210156102db5760008481526020908190208301805460408051601f60026000196101006001871615020190941693909304928301859004850281018501909152818152928301828280156102c75780601f1061029c576101008083540402835291602001916102c7565b820191906000526020600020905b8154815290600101906020018083116102aa57829003601f168201915b505050505081526020019060010190610230565b50505050905090565b7f00000000000000000000000000000000000000000000000000000000000000006001600160a01b031633146103355760405162461bcd60e51b815260040161032c90610d0d565b60405180910390fd5b60045442106103565760405162461bcd60e51b815260040161032c90610d33565b600354600160a01b900460ff16156103805760405162461bcd60e51b815260040161032c90610d5f565b600380546001600160a01b0319166001600160a01b0392909216919091179055565b60045460055482565b600281815481106103bb57600080fd5b600091825260209182902001805460408051601f600260001961010060018716150201909416939093049283018590048502810185019091528181529350909183018282801561044c5780601f106104215761010080835404028352916020019161044c565b820191906000526020600020905b81548152906001019060200180831161042f57829003601f168201915b505050505081565b600181815481106103bb57600080fd5b6000805460408051602060026001851615610100026000190190941693909304601f8101849004840282018401909252818152929183018282801561044c5780601f106104215761010080835404028352916020019161044c565b7f00000000000000000000000000000000000000000000000000000000000000006001600160a01b031633146105075760405162461bcd60e51b815260040161032c90610d0d565b60045442106105285760405162461bcd60e51b815260040161032c90610d33565b600354600160a01b900460ff16156105525760405162461bcd60e51b815260040161032c90610d5f565b6003805460ff60a01b1916600160a01b179055565b600354600160a01b900460ff1681565b6060426004600001541115801561059057506005544211155b6105ac5760405162461bcd60e51b815260040161032c90610ce3565b6060336040516024016105bf9190610c51565b60408051601f198184030181529181526020820180516001600160e01b031663f3e31cab60e01b17905260035490519192506000916060916001600160a01b03169061060c908590610bc5565b600060405180830381855af49150503d8060008114610647576040519150601f19603f3d011682016040523d82523d6000602084013e61064c565b606091505b50915091508161065b57600080fd5b60028054600181018255600091909152610698907f405787fa12a823e0f2b7631cc41b3ba8828b3321ca811111fa75cd3aa3bb5ace018787610a24565b5095945050505050565b600554606090421180156106f857506040805160208101825260009081905290517fc5d2460186f7233c927e7db2dcc703c0e500b653ca82273b7bfad8045d85a470916106ee91610be1565b6040518091039020145b6107145760405162461bcd60e51b815260040161032c90610d8f565b6002805480602002602001604051908101604052809291908181526020016000905b828210156102db5760008481526020908190208301805460408051601f60026000196101006001871615020190941693909304928301859004850281018501909152818152928301828280156107cd5780601f106107a2576101008083540402835291602001916107cd565b820191906000526020600020905b8154815290600101906020018083116107b057829003601f168201915b505050505081526020019060010190610736565b7f000000000000000000000000000000000000000000000000000000000000000081565b7f00000000000000000000000000000000000000000000000000000000000000006001600160a01b0316331461084d5760405162461bcd60e51b815260040161032c90610d0d565b600354600160a01b900460ff16156108775760405162461bcd60e51b815260040161032c90610d5f565b600491909155600555565b6003546001600160a01b031681565b7f00000000000000000000000000000000000000000000000000000000000000006001600160a01b031633146108d95760405162461bcd60e51b815260040161032c90610d0d565b60045442106108fa5760405162461bcd60e51b815260040161032c90610d33565b600354600160a01b900460ff16156109245760405162461bcd60e51b815260040161032c90610d5f565b600180548082018255600091909152610960907fb10e2d527612073b26eecdfd717e6a320cf44b4afac2b0732d9fcbe2b7fa0cf6018383610a24565b505050565b7f00000000000000000000000000000000000000000000000000000000000000006001600160a01b031633146109ad5760405162461bcd60e51b815260040161032c90610d0d565b60055442118015610a0057506040805160208101825260009081905290517fc5d2460186f7233c927e7db2dcc703c0e500b653ca82273b7bfad8045d85a470916109f691610be1565b6040518091039020145b610a1c5760405162461bcd60e51b815260040161032c90610d8f565b610960600083835b828054600181600116156101000203166002900490600052602060002090601f016020900481019282610a5a5760008555610aa0565b82601f10610a735782800160ff19823516178555610aa0565b82800160010185558215610aa0579182015b82811115610aa0578235825591602001919060010190610a85565b50610aac929150610ab0565b5090565b5b80821115610aac5760008155600101610ab1565b600060208284031215610ad6578081fd5b81356001600160a01b0381168114610aec578182fd5b9392505050565b60008060208385031215610b05578081fd5b823567ffffffffffffffff80821115610b1c578283fd5b818501915085601f830112610b2f578283fd5b813581811115610b3d578384fd5b866020828501011115610b4e578384fd5b60209290920196919550909350505050565b600060208284031215610b71578081fd5b5035919050565b60008060408385031215610b8a578182fd5b50508035926020909101359150565b60008151808452610bb1816020860160208601610dc5565b601f01601f19169290920160200192915050565b60008251610bd7818460208701610dc5565b9190910192915050565b6000808354600180821660008114610c005760018114610c1757610c46565b60ff198316865260028304607f1686019350610c46565b600283048786526020808720875b83811015610c3e5781548a820152908501908201610c25565b505050860193505b509195945050505050565b6001600160a01b0391909116815260200190565b6000602080830181845280855180835260408601915060408482028701019250838701855b82811015610cb857603f19888603018452610ca6858351610b99565b94509285019290850190600101610c8a565b5092979650505050505050565b901515815260200190565b600060208252610aec6020830184610b99565b60208082526010908201526f4e6f7420766f74696e672054696d652160801b604082015260600190565b6020808252600c908201526b57686f2061726520796f753f60a01b604082015260600190565b6020808252601290820152712b37ba34b7339034b9903737ba103cb2ba1760711b604082015260600190565b60208082526016908201527521b0b713ba1039b2ba3a34b7339030b73cb6b7b9329760511b604082015260600190565b6020808252600e908201526d2b37ba34b7339034b99032b7321760911b604082015260600190565b918252602082015260400190565b60005b83811015610de0578181015183820152602001610dc8565b83811115610def576000848401525b5050505056fea26469706673582212201c968357a6f4620c8cf53ebcb3a91800bd06cc513682a238c0ef1f67ed4b539364736f6c63430007040033",
  "immutableReferences": {
    "223": [
      {
        "length": 32,
        "start": 742
      },
      {
        "length": 32,
        "start": 1217
      },
      {
        "length": 32,
        "start": 2019
      },
      {
        "length": 32,
        "start": 2055
      },
      {
        "length": 32,
        "start": 2195
      },
      {
        "length": 32,
        "start": 2407
      }
    ]
  },
  "source": "// SPDX-License-Identifier: MIT\npragma solidity ^0.7.4;\npragma experimental ABIEncoderV2;\n\ncontract VoteCollection {\n    string public privateKey;\n    string[] public candidates;\n    string[] public stronghold;\n    address immutable public owner = msg.sender;\n    address public voteProvider;\n    bool public isSettingFinish;\n    VoteTime public votingTime;\n\n    struct VoteTime {\n        uint startTime;\n        uint expireTime;\n    }\n\n    modifier isOwner() {\n        require(owner == msg.sender, \"Who are you?\");\n        _;\n    }\n\n    modifier isEnableSetting() {\n        require(!isSettingFinish, \"Can't setting anymore.\");\n        _;\n    }\n\n    modifier isBeforeVoting() {\n        require(block.timestamp < votingTime.startTime, \"Voting is not yet.\");\n        _;\n    }\n\n    modifier isVotingTime() {\n        require(\n            votingTime.startTime <= block.timestamp && block.timestamp <= votingTime.expireTime,\n            \"Not voting Time!\"\n        );\n        _;\n    }\n\n    modifier isFinishedVoting() {\n        require(\n            block.timestamp > votingTime.expireTime && keccak256(bytes(privateKey)) == keccak256(bytes(\"\")),\n            \"Voting is end.\"\n        );\n        _;\n    }\n\n    // ;\n    function voteTo(string calldata data) public isVotingTime returns (bytes memory) {\n        bytes memory payload = abi.encodeWithSignature(\"recycleVote(address)\", msg.sender);\n        (bool success, bytes memory returnData) = voteProvider.delegatecall(payload);\n\n        require(success);\n\n        stronghold.push(data);\n        return returnData;\n    }\n\n    //  ;\n    function setTime(uint _startTime, uint _expireTime) public isOwner isEnableSetting{\n        votingTime.startTime = _startTime;\n        votingTime.expireTime = _expireTime;\n    }\n\n    //  ;\n    function introduceCandidate(string calldata _introduce) public isOwner isBeforeVoting isEnableSetting{\n        candidates.push(_introduce);\n    }\n\n    //  \n    function setVoteProvider(address _provider) public isOwner isBeforeVoting isEnableSetting{\n        voteProvider = _provider;\n    }\n\n    //  ;\n    function stopSetAnymore() public isOwner isBeforeVoting isEnableSetting{\n        isSettingFinish = true;\n    }\n\n    //  ;\n    function setPrivateKey(string calldata _privateKey) public isOwner isFinishedVoting{\n        privateKey = _privateKey;\n    }\n\n    //  ;\n    function getCandidates() public view returns(string[] memory) {\n        return candidates;\n    }\n\n    // ;\n    function getVoteResult() public view isFinishedVoting returns (string[] memory){\n        return stronghold;\n    }\n}\n",
  "sourcePath": "/Users/xillis_wu/Documents/Github/Practice_Area/blockchain/voting-syetem/contracts/VoteCollection.sol",
  "compiler": {
    "name": "solc",
    "version": "0.7.4+commit.3f05b770.Emscripten.clang"
  },
  "schemaVersion": "3.3.1",
  "updatedAt": "2020-10-30T22:05:14.023Z",
  "networkType": "ethereum",
  "devdoc": {
    "kind": "dev",
    "methods": {},
    "version": 1
  },
  "userdoc": {
    "kind": "user",
    "methods": {},
    "version": 1
  }
}