{
  "contractName": "VoteCollection",
  "abi": [
    {
      "anonymous": false,
      "inputs": [
        {
          "indexed": false,
          "internalType": "string",
          "name": "_message",
          "type": "string"
        }
      ],
      "name": "SetCandidate",
      "type": "event"
    },
    {
      "anonymous": false,
      "inputs": [
        {
          "indexed": false,
          "internalType": "string",
          "name": "_message",
          "type": "string"
        }
      ],
      "name": "SetPrivateKey",
      "type": "event"
    },
    {
      "anonymous": false,
      "inputs": [
        {
          "indexed": false,
          "internalType": "string",
          "name": "_message",
          "type": "string"
        }
      ],
      "name": "SetProvider",
      "type": "event"
    },
    {
      "anonymous": false,
      "inputs": [
        {
          "indexed": false,
          "internalType": "string",
          "name": "_message",
          "type": "string"
        }
      ],
      "name": "SetPublicKey",
      "type": "event"
    },
    {
      "anonymous": false,
      "inputs": [
        {
          "indexed": false,
          "internalType": "string",
          "name": "_message",
          "type": "string"
        }
      ],
      "name": "SetTime",
      "type": "event"
    },
    {
      "inputs": [
        {
          "internalType": "uint256",
          "name": "",
          "type": "uint256"
        }
      ],
      "name": "candidates",
      "outputs": [
        {
          "internalType": "string",
          "name": "",
          "type": "string"
        }
      ],
      "stateMutability": "view",
      "type": "function",
      "constant": true
    },
    {
      "inputs": [],
      "name": "isDev",
      "outputs": [
        {
          "internalType": "bool",
          "name": "",
          "type": "bool"
        }
      ],
      "stateMutability": "view",
      "type": "function",
      "constant": true
    },
    {
      "inputs": [],
      "name": "isSettingFinish",
      "outputs": [
        {
          "internalType": "bool",
          "name": "",
          "type": "bool"
        }
      ],
      "stateMutability": "view",
      "type": "function",
      "constant": true
    },
    {
      "inputs": [],
      "name": "owner",
      "outputs": [
        {
          "internalType": "address",
          "name": "",
          "type": "address"
        }
      ],
      "stateMutability": "view",
      "type": "function",
      "constant": true
    },
    {
      "inputs": [],
      "name": "privateKey",
      "outputs": [
        {
          "internalType": "string",
          "name": "",
          "type": "string"
        }
      ],
      "stateMutability": "view",
      "type": "function",
      "constant": true
    },
    {
      "inputs": [],
      "name": "publicKey",
      "outputs": [
        {
          "internalType": "string",
          "name": "",
          "type": "string"
        }
      ],
      "stateMutability": "view",
      "type": "function",
      "constant": true
    },
    {
      "inputs": [
        {
          "internalType": "uint256",
          "name": "",
          "type": "uint256"
        }
      ],
      "name": "stronghold",
      "outputs": [
        {
          "internalType": "string",
          "name": "",
          "type": "string"
        }
      ],
      "stateMutability": "view",
      "type": "function",
      "constant": true
    },
    {
      "inputs": [],
      "name": "voteProvider",
      "outputs": [
        {
          "internalType": "address",
          "name": "",
          "type": "address"
        }
      ],
      "stateMutability": "view",
      "type": "function",
      "constant": true
    },
    {
      "inputs": [],
      "name": "votingTime",
      "outputs": [
        {
          "internalType": "uint256",
          "name": "startTime",
          "type": "uint256"
        },
        {
          "internalType": "uint256",
          "name": "expireTime",
          "type": "uint256"
        }
      ],
      "stateMutability": "view",
      "type": "function",
      "constant": true
    },
    {
      "inputs": [
        {
          "internalType": "string",
          "name": "data",
          "type": "string"
        }
      ],
      "name": "voteTo",
      "outputs": [
        {
          "internalType": "bool",
          "name": "",
          "type": "bool"
        }
      ],
      "stateMutability": "nonpayable",
      "type": "function"
    },
    {
      "inputs": [
        {
          "internalType": "uint256",
          "name": "_startTime",
          "type": "uint256"
        },
        {
          "internalType": "uint256",
          "name": "_expireTime",
          "type": "uint256"
        }
      ],
      "name": "setTime",
      "outputs": [],
      "stateMutability": "nonpayable",
      "type": "function"
    },
    {
      "inputs": [
        {
          "internalType": "string",
          "name": "_introduce",
          "type": "string"
        }
      ],
      "name": "introduceCandidate",
      "outputs": [],
      "stateMutability": "nonpayable",
      "type": "function"
    },
    {
      "inputs": [
        {
          "internalType": "address",
          "name": "_provider",
          "type": "address"
        }
      ],
      "name": "setVoteProvider",
      "outputs": [],
      "stateMutability": "nonpayable",
      "type": "function"
    },
    {
      "inputs": [],
      "name": "stopSetAnymore",
      "outputs": [],
      "stateMutability": "nonpayable",
      "type": "function"
    },
    {
      "inputs": [
        {
          "internalType": "string",
          "name": "_privateKey",
          "type": "string"
        }
      ],
      "name": "setPrivateKey",
      "outputs": [],
      "stateMutability": "nonpayable",
      "type": "function"
    },
    {
      "inputs": [
        {
          "internalType": "string",
          "name": "_publicKey",
          "type": "string"
        }
      ],
      "name": "setPublicKey",
      "outputs": [],
      "stateMutability": "nonpayable",
      "type": "function"
    },
    {
      "inputs": [],
      "name": "getCandidates",
      "outputs": [
        {
          "internalType": "string[]",
          "name": "",
          "type": "string[]"
        }
      ],
      "stateMutability": "view",
      "type": "function",
      "constant": true
    },
    {
      "inputs": [],
      "name": "getVoteResult",
      "outputs": [
        {
          "internalType": "string[]",
          "name": "",
          "type": "string[]"
        }
      ],
      "stateMutability": "view",
      "type": "function",
      "constant": true
    },
    {
      "inputs": [],
      "name": "stopVoting",
      "outputs": [],
      "stateMutability": "nonpayable",
      "type": "function"
    },
    {
      "inputs": [],
      "name": "SPECIAL_TIME",
      "outputs": [],
      "stateMutability": "nonpayable",
      "type": "function"
    }
  ],
  "bytecode": "0x60a06040523360601b60805234801561001757600080fd5b5060805160601c6113b561005d60003980610363528061057752806106b55280610a495280610aa75280610ade5280610bbf5280610cf95280610dd452506113b56000f3fe608060405234801561001057600080fd5b506004361061012c5760003560e01c806380d1020a116100ad578063d0ca2ea411610071578063d0ca2ea414610238578063dc402a8f14610240578063e0d4f01714610253578063f079914f14610266578063fab2f86b1461026e5761012c565b806380d1020a146101ed5780638742fc3b146102005780638d840e86146102085780638da5cb5b14610210578063a0355eca146102255761012c565b806349da5a0f116100f457806349da5a0f146101ad5780635eb9ff5e146101b557806363ffab31146101bd5780636f6fc077146101c5578063733fa3c9146101d85761012c565b806306a49fce1461013157806313ef98511461014f5780631cbe482d1461016457806334391fb81461017a5780633477ee2e1461019a575b600080fd5b610139610276565b60405161014691906110c8565b60405180910390f35b61016261015d366004610f05565b61034e565b005b61016c610445565b604051610146929190611371565b61018d610188366004610fc0565b61044e565b6040516101469190611133565b61018d6101a8366004610fc0565b6104f7565b61018d610507565b610162610562565b61018d610646565b6101626101d3366004610f53565b6106a0565b6101e0610777565b6040516101469190611128565b6101e06101fb366004610f53565b610787565b6101396108b8565b610162610a34565b610218610aa5565b60405161014691906110b4565b610162610233366004610fd8565b610ac9565b610218610b9b565b61016261024e366004610f53565b610baa565b610162610261366004610f53565b610ce4565b6101e0610daf565b610162610dbf565b60606002805480602002602001604051908101604052809291908181526020016000905b828210156103455760008481526020908190208301805460408051601f60026000196101006001871615020190941693909304928301859004850281018501909152818152928301828280156103315780601f1061030657610100808354040283529160200191610331565b820191906000526020600020905b81548152906001019060200180831161031457829003601f168201915b50505050508152602001906001019061029a565b50505050905090565b600454600160a81b900460ff168061038e57507f00000000000000000000000000000000000000000000000000000000000000006001600160a01b031633145b6103b35760405162461bcd60e51b81526004016103aa906111a5565b60405180910390fd5b600454600160a81b900460ff16806103d55750600454600160a01b900460ff16155b6103f15760405162461bcd60e51b81526004016103aa906111f7565b600480546001600160a01b0319166001600160a01b0383161790556040517fbadf96f9afa91397dbfb4c3ce003f9b890651ebb0c5bcd9db21287f5034e4b659061043a90611227565b60405180910390a150565b60055460065482565b6003818154811061045e57600080fd5b600091825260209182902001805460408051601f60026000196101006001871615020190941693909304928301859004850281018501909152818152935090918301828280156104ef5780601f106104c4576101008083540402835291602001916104ef565b820191906000526020600020905b8154815290600101906020018083116104d257829003601f168201915b505050505081565b6002818154811061045e57600080fd5b6000805460408051602060026001851615610100026000190190941693909304601f810184900484028201840190925281815292918301828280156104ef5780601f106104c4576101008083540402835291602001916104ef565b600454600160a81b900460ff16806105a257507f00000000000000000000000000000000000000000000000000000000000000006001600160a01b031633145b6105be5760405162461bcd60e51b81526004016103aa906111a5565b600454600160a81b900460ff16806105d7575060055442105b6105f35760405162461bcd60e51b81526004016103aa906111cb565b600454600160a81b900460ff16806106155750600454600160a01b900460ff16155b6106315760405162461bcd60e51b81526004016103aa906111f7565b6004805460ff60a01b1916600160a01b179055565b60018054604080516020600284861615610100026000190190941693909304601f810184900484028201840190925281815292918301828280156104ef5780601f106104c4576101008083540402835291602001916104ef565b600454600160a81b900460ff16806106e057507f00000000000000000000000000000000000000000000000000000000000000006001600160a01b031633145b6106fc5760405162461bcd60e51b81526004016103aa906111a5565b600454600160a81b900460ff1680610715575060065442115b6107315760405162461bcd60e51b81526004016103aa906112e7565b61073d60018383610e64565b507f78568ae60c1e8aa56fc29359e497fa9ecc09d5d99b695f9f5ce3d510329352dd60405161076b906112b7565b60405180910390a15050565b600454600160a01b900460ff1681565b600454600090600160a81b900460ff16806107b1575060055442108015906107b157506006544211155b6107cd5760405162461bcd60e51b81526004016103aa90611146565b6004805460405163f3e31cab60e01b81526001600160a01b0390911691600091839163f3e31cab91610801913391016110b4565b602060405180830381600087803b15801561081b57600080fd5b505af115801561082f573d6000803e3d6000fd5b505050506040513d601f19601f820116820180604052508101906108539190610f33565b9050806108725760405162461bcd60e51b81526004016103aa9061130f565b600380546001810182556000919091526108af907fc2575a0e9e593c00f959f8c92f12db2869c3395a3b0502d05e2516446f71f85b018686610e64565b50949350505050565b600454606090600160a81b900460ff16806108d4575060065442115b6108f05760405162461bcd60e51b81526004016103aa906112e7565b600454600160a81b900460ff168061094b57506040805160208101825260009081905290517fc5d2460186f7233c927e7db2dcc703c0e500b653ca82273b7bfad8045d85a4709161094091611044565b604051809103902014155b6109675760405162461bcd60e51b81526004016103aa90611170565b6003805480602002602001604051908101604052809291908181526020016000905b828210156103455760008481526020908190208301805460408051601f6002600019610100600187161502019094169390930492830185900485028101850190915281815292830182828015610a205780601f106109f557610100808354040283529160200191610a20565b820191906000526020600020905b815481529060010190602001808311610a0357829003601f168201915b505050505081526020019060010190610989565b600454600160a81b900460ff1680610a7457507f00000000000000000000000000000000000000000000000000000000000000006001600160a01b031633145b610a905760405162461bcd60e51b81526004016103aa906111a5565b6004805460ff60a81b1916600160a81b179055565b7f000000000000000000000000000000000000000000000000000000000000000081565b600454600160a81b900460ff1680610b0957507f00000000000000000000000000000000000000000000000000000000000000006001600160a01b031633145b610b255760405162461bcd60e51b81526004016103aa906111a5565b600454600160a81b900460ff1680610b475750600454600160a01b900460ff16155b610b635760405162461bcd60e51b81526004016103aa906111f7565b600582905560068190556040517fb0a7cb1766c9f49d6b070074cc3806a036848a8d1281052aa96c49f13e18b6ef9061076b9061128d565b6004546001600160a01b031681565b600454600160a81b900460ff1680610bea57507f00000000000000000000000000000000000000000000000000000000000000006001600160a01b031633145b610c065760405162461bcd60e51b81526004016103aa906111a5565b600454600160a81b900460ff1680610c1f575060055442105b610c3b5760405162461bcd60e51b81526004016103aa906111cb565b600454600160a81b900460ff1680610c5d5750600454600160a01b900460ff16155b610c795760405162461bcd60e51b81526004016103aa906111f7565b60028054600181018255600091909152610cb6907f405787fa12a823e0f2b7631cc41b3ba8828b3321ca811111fa75cd3aa3bb5ace018383610e64565b507f3455c4c5bc8f8925b22ef881a89a16d40e6da09fac2c08e1a41052e499c6628260405161076b9061125e565b600454600160a81b900460ff1680610d2457507f00000000000000000000000000000000000000000000000000000000000000006001600160a01b031633145b610d405760405162461bcd60e51b81526004016103aa906111a5565b600454600160a81b900460ff1680610d59575060065442115b610d755760405162461bcd60e51b81526004016103aa906112e7565b610d8160008383610e64565b507f03781556f95bc9446a1594219f333482bf4adfce724ead909cf19fe95da1ee9e60405161076b9061133a565b600454600160a81b900460ff1681565b600454600160a81b900460ff1680610dff57507f00000000000000000000000000000000000000000000000000000000000000006001600160a01b031633145b610e1b5760405162461bcd60e51b81526004016103aa906111a5565b600454600160a81b900460ff1680610e4257506005544210801590610e4257506006544211155b610e5e5760405162461bcd60e51b81526004016103aa90611146565b42600655565b828054600181600116156101000203166002900490600052602060002090601f016020900481019282610e9a5760008555610ee0565b82601f10610eb35782800160ff19823516178555610ee0565b82800160010185558215610ee0579182015b82811115610ee0578235825591602001919060010190610ec5565b50610eec929150610ef0565b5090565b5b80821115610eec5760008155600101610ef1565b600060208284031215610f16578081fd5b81356001600160a01b0381168114610f2c578182fd5b9392505050565b600060208284031215610f44578081fd5b81518015158114610f2c578182fd5b60008060208385031215610f65578081fd5b823567ffffffffffffffff80821115610f7c578283fd5b818501915085601f830112610f8f578283fd5b813581811115610f9d578384fd5b866020828501011115610fae578384fd5b60209290920196919550909350505050565b600060208284031215610fd1578081fd5b5035919050565b60008060408385031215610fea578182fd5b50508035926020909101359150565b60008151808452815b8181101561101e57602081850181015186830182015201611002565b8181111561102f5782602083870101525b50601f01601f19169290920160200192915050565b6000808354600180821660008114611063576001811461107a576110a9565b60ff198316865260028304607f16860193506110a9565b600283048786526020808720875b838110156110a15781548a820152908501908201611088565b505050860193505b509195945050505050565b6001600160a01b0391909116815260200190565b6000602080830181845280855180835260408601915060408482028701019250838701855b8281101561111b57603f19888603018452611109858351610ff9565b945092850192908501906001016110ed565b5092979650505050505050565b901515815260200190565b600060208252610f2c6020830184610ff9565b60208082526010908201526f4e6f7420766f74696e672054696d652160801b604082015260600190565b6020808252818101527f53686f756c642066696c6c20696e20776974682050726976617465204b657921604082015260600190565b6020808252600c908201526b57686f2061726520796f753f60a01b604082015260600190565b6020808252601290820152712b37ba34b7339034b9903737ba103cb2ba1760711b604082015260600190565b60208082526016908201527521b0b713ba1039b2ba3a34b7339030b73cb6b7b9329760511b604082015260600190565b6020808252601c908201527f5365742070726f76696465722061646472657373207375636365737300000000604082015260600190565b6020808252601590820152745365742063616e646964617465207375636365737360581b604082015260600190565b60208082526010908201526f5365742074696d65207375636365737360801b604082015260600190565b602080825260169082015275536574207075626c6963206b6579207375636365737360501b604082015260600190565b6020808252600e908201526d2b37ba34b7339034b99032b7321760911b604082015260600190565b602080825260119082015270149958de58db19481d9bdd194811985a5b607a1b604082015260600190565b60208082526017908201527f5365742070726976617465206b65792073756363657373000000000000000000604082015260600190565b91825260208201526040019056fea26469706673582212201cc4b5a1a6cbf6c5375261bcad209f9fb90093f129aa08ee002d0aa2cf2b2ee564736f6c63430007040033",
  "immutableReferences": {
    "226": [
      {
        "length": 32,
        "start": 867
      },
      {
        "length": 32,
        "start": 1399
      },
      {
        "length": 32,
        "start": 1717
      },
      {
        "length": 32,
        "start": 2633
      },
      {
        "length": 32,
        "start": 2727
      },
      {
        "length": 32,
        "start": 2782
      },
      {
        "length": 32,
        "start": 3007
      },
      {
        "length": 32,
        "start": 3321
      },
      {
        "length": 32,
        "start": 3540
      }
    ]
  },
  "source": "// SPDX-License-Identifier: MIT\npragma solidity ^0.7.4;\npragma experimental ABIEncoderV2;\n\nimport \"./VoteProvider.sol\";\n\ncontract VoteCollection {\n    string public privateKey;\n    string public publicKey;\n    string[] public candidates;\n    string[] public stronghold;\n    address immutable public owner = msg.sender;\n    address public voteProvider;\n    bool public isSettingFinish;\n    bool public isDev;\n    VoteTime public votingTime;\n\n    struct VoteTime {\n        uint startTime;\n        uint expireTime;\n    }\n\n    event SetTime(string _message);\n    event SetCandidate(string _message);\n    event SetProvider(string _message);\n    event SetPrivateKey(string _message);\n    event SetPublicKey(string _message);\n\n    modifier isOwner() {\n        require(isDev || owner == msg.sender,\n            \"Who are you?\"\n        );\n        _;\n    }\n\n    modifier isEnableSetting() {\n        require(isDev || !isSettingFinish,\n            \"Can't setting anymore.\"\n        );\n        _;\n    }\n\n    modifier isBeforeVoting() {\n        require(isDev || block.timestamp < votingTime.startTime,\n            \"Voting is not yet.\"\n        );\n        _;\n    }\n\n    modifier isVotingTime() {\n        require(isDev || votingTime.startTime <= block.timestamp && block.timestamp <= votingTime.expireTime,\n            \"Not voting Time!\"\n        );\n        _;\n    }\n\n    modifier isFinishedVoting() {\n        require(isDev || block.timestamp > votingTime.expireTime,\n            \"Voting is end.\"\n        );\n        _;\n    }\n\n    modifier hasFillInWithPrivateKey() {\n        require(isDev || keccak256(bytes(privateKey)) != keccak256(bytes(\"\")),\n            \"Should fill in with Private Key!\"\n        );\n        _;\n    }\n\n    // ;\n    function voteTo(string calldata data) public isVotingTime returns (bool) {\n        VoteProvider vote = VoteProvider(voteProvider);\n        bool success = vote.recycleVote(msg.sender);\n        require(success, \"Recycle vote Fail\");\n\n        stronghold.push(data);\n\n        return success;\n    }\n\n    //  ;\n    function setTime(uint _startTime, uint _expireTime) public isOwner isEnableSetting{\n        votingTime.startTime = _startTime;\n        votingTime.expireTime = _expireTime;\n\n        emit SetTime(\"Set time success\");\n    }\n\n    //  ;\n    function introduceCandidate(string calldata _introduce) public isOwner isBeforeVoting isEnableSetting{\n        candidates.push(_introduce);\n\n        emit SetCandidate(\"Set candidate success\");\n    }\n\n    //  \n    function setVoteProvider(address _provider) public isOwner isEnableSetting{\n        voteProvider = _provider;\n\n        emit SetProvider(\"Set provider address success\");\n    }\n\n    //  ;\n    function stopSetAnymore() public isOwner isBeforeVoting isEnableSetting{\n        isSettingFinish = true;\n    }\n\n    //  ;\n    function setPrivateKey(string calldata _privateKey) public isOwner isFinishedVoting{\n        privateKey = _privateKey;\n\n        emit SetPrivateKey(\"Set private key success\");\n    }\n\n    //  ;\n    function setPublicKey(string calldata _publicKey) public isOwner isFinishedVoting{\n        publicKey = _publicKey;\n\n        emit SetPublicKey(\"Set public key success\");\n    }\n\n    //  ;\n    function getCandidates() public view returns(string[] memory) {\n        return candidates;\n    }\n\n    // ;\n    function getVoteResult() public view isFinishedVoting hasFillInWithPrivateKey returns (string[] memory){\n        return stronghold;\n    }\n\n    /*  */\n\n    // \n    function stopVoting() public isOwner isVotingTime {\n        votingTime.expireTime = block.timestamp;\n    }\n\n    // \n    function SPECIAL_TIME() public isOwner {\n        isDev = true;\n    }\n}\n",
  "sourcePath": "/Users/xillis_wu/Documents/voting-syetem/contracts/VoteCollection.sol",
  "compiler": {
    "name": "solc",
    "version": "0.7.4+commit.3f05b770.Emscripten.clang"
  },
  "schemaVersion": "3.3.1",
  "updatedAt": "2020-10-31T18:18:03.524Z",
  "networkType": "ethereum",
  "devdoc": {
    "kind": "dev",
    "methods": {},
    "version": 1
  },
  "userdoc": {
    "kind": "user",
    "methods": {},
    "version": 1
  }
}